:020000040000FA
:060000000A128A11162805
:10000800FE00030E83160313A3000408A4000A08C5
:10001800A500831203137F0883160313A6000A1290
:100028008A11372B0A128A1119288317D430FD0038
:100038000530FE00FB30FF00903084000A128A1160
:1000480045270A128A118313E330FD000730FE00AA
:100058007330FF00DB3084000A128A1145270A1228
:100068008A110A128A1183270A128A11FD00C130E7
:100078008400DB300A128A117B270A128A11EF01E9
:10008800FC0183010A128A1149280A128A1164277D
:100098000A128A11803083160313B6002530B70080
:1000A8000A128A113F260A128A110A128A11A425F5
:1000B8000A128A1101300A128A1179260A128A1143
:1000C800831603135D08BC003C08C2005D08BC0031
:1000D8003C08C3005D08BC003C08C4005B08BC00C9
:1000E8003C08C1004D0803197A287B288028013074
:1000F800BC003C08D007CD014B080319842885288B
:100108008A280130BC003C08CF07CB0149080319F5
:100118008E288F2894280130BC003C08CE07C901DE
:100128004803031D982899280B29BF01C0013F08DF
:10013800031D9F28A02801294008C13E840083137D
:1001480000085B06031DA928AA2801294008C13E0A
:10015800840000085B06031DB228B328C928C7011C
:10016800C70ABD285C08BC004008C13E84003C08A2
:10017800800047030319C128C228B6285D08BC00BF
:100188004008C13E84003C08800003304002031848
:10019800CE28CF28E7284008C23E840000085D0624
:1001A800031DD728D828E728C701C70AE2285C0812
:1001B800BC004008C23E84003C0880004703031985
:1001C800E628E728DB2803304002031CEC28ED284A
:1001D800FF285D084106031DF228F328FF28C70100
:1001E800C70AFA285C08BC003C08C1004703031989
:1001F800FE28FF28F628BF01BF0A0130BC003C08D2
:10020800C00704304002031C0A290B299B28480315
:10021800031D0F291029EC29AB01AB0AAC010A30E8
:10022800BC003C08AD0001300A128A11A1260A124E
:100238008A11023083160313BC003C08AB00AC01E2
:10024800AC0A3C30BD003D08AD0001300A128A11ED
:10025800A1260A128A11043083160313BC003C0835
:10026800AB000230BD003D08AC00AD01AD0A013065
:100278000A128A11A1260A128A1183160313AB01E6
:100288000330BC003C08AC004108BD003D08AD008F
:1002980002300A128A11A1260A128A118316031340
:1002A800AB01AB0A0330BC003C08AC004208BD00FF
:1002B8003D08AD0002300A128A11A1260A128A11DD
:1002C800023083160313BC003C08AB000330BD00AA
:1002D8003D08AC004308BE003E08AD0002300A12DB
:1002E8008A11A1260A128A11033083160313BC004F
:1002F8003C08AB000330BD003D08AC004408BE001C
:100308003E08AD0002300A128A11A1260A128A118B
:1003180083160313AB01AB0A0430BC003C08AC00E5
:100328004F08BD003D08AD0002300A128A11A1260F
:100338000A128A1183160313AB01AB0A0430BC00FE
:100348003C08AC000430BD003D08AD0002300A1284
:100358008A11A1260A128A1183160313CF01AB0151
:10036800AB0A0530BC003C08AC005008BD003D0895
:10037800AD0002300A128A11A1260A128A118316C8
:100388000313AB01AB0A0530BC003C08AC000730D6
:10039800BD003D08AD0002300A128A11A1260A12DA
:1003A8008A1183160313D001AB01AB0A0630BC00D7
:1003B8003C08AC000330BD003D08AD0002300A1215
:1003C8008A11A1260A128A1183160313CE01C801C5
:1003D80052080319F029F12976285108BC003C0875
:1003E800FC00D20176280A128A1116285730840098
:1003F800C33083120313A0000408A1001130A20027
:100408002008840083170008A300A00A210884009C
:10041800831323088000A10AA20B042A0230EB00F0
:100428000030EC00ED01EE017A08803AFF008030E0
:100438007F02031D212A0A3079020318242A252A5B
:100448002C2A013083120313EB000030EC00392A08
:10045800643079067A04031D322A332A392A033094
:1004680083120313EB000030EC0079087A040319B7
:100478003E2A3F2A782A712A0A30F0000030F1001B
:100488007A08F3007908F2000A128A114B250A1239
:100498008A117008303E83120313A0006D08683E6D
:1004A80084002008831380000A30F0000030F10037
:1004B8007A08F3007908F2000A128A11E4240A1271
:1004C8008A117108FA007008F900013083120313C9
:1004D800ED070318EE0A0030EE0779087A04031DC9
:1004E800762A772A402A7E2A303083120313A00006
:1004F8002008E80083120313ED01EE01972A831206
:1005080003136D08683E840083130008A0006D087B
:100518000D3C573E8400200880000130ED07031889
:10052800EE0A0030EE076E08803AA0006C08803AA8
:100538002002031DA12A6B086D02031CA42AA52A08
:10054800832A01300A128A11E4260A128A11C0305D
:100558000A128A11E4260A128A117B08031DB52A99
:10056800B62AD42A24308400B23083120313A000A0
:100578000408A1001130A200200884008317000895
:10058800A300A00A21088400831323088000A10A7D
:10059800A20BC02A24300A128A11C3260A128A1111
:1005A8007B03031DD82AD92AF72A35308400A130C5
:1005B80083120313A0000408A1001130A200200830
:1005C800840083170008A300A00A2108840083136D
:1005D80023088000A10AA20BE32A35300A128A11E7
:1005E800C3260A128A1102307B06031DFC2AFD2A43
:1005F8001B2B46308400903083120313A00004089C
:10060800A1001130A2002008840083170008A3006D
:10061800A00A21088400831323088000A10AA20BE2
:10062800072B46300A128A11C3260A128A1105308E
:1006380083120313A2000F30A100F030A000A00B1A
:10064800232BA10B232BA20B232B000080300A1293
:100658008A11E4260A128A1157300A128A11C3260F
:100668000A128A1108008312031386193C2B3D2BAA
:100678004E2B6F08031D412B422B4E2B8316031361
:100688004D080319482B4A2B01304B2B0030A00092
:100698002008CD0003108312861D031400300318B0
:1006A8000130EF00061A592B5A2B6B2B83160313B4
:1006B8004C08031D602B612B6B2B4B080319652B12
:1006C800672B0130682B0030A0002008CB000310F6
:1006D8008312061E03140030031801308316031317
:1006E800CC0083120313861A7A2B7B2B8C2B831650
:1006F80003134A08031D812B822B8C2B49080319ED
:10070800862B882B0130892B0030A0002008C900D7
:1007180003108312861E0314003003180130831659
:100728000313CA005E085F04031D9B2B9C2BA12B9F
:10073800C7010330DE000030DF007D08031DA52B54
:10074800A62BB62BC801C80A7C080319AC2BAD2B05
:10075800B22B7C08A0002008FD00B62B0530A000B5
:100768002008FD00831203138C1EBB2BBC2BC92B46
:100778008C1EBF2BC02BBC2B8C121A08831603139C
:10078800A0002008D100D201D20A0B1DCC2BCD2B02
:10079800362CFB3083160313A00020088B05063087
:1007A800831203138100013083160313C50703184E
:1007B800C60A0030C6077D3045064604031DE52BF2
:1007C800E62B362C41085B06031DEB2BEC2BF92B93
:1007D8007D08A000A1012008F9002108FA00FB010A
:1007E8000A128A11FA210A128A11831603135D0864
:1007F8004106031D002C012C112C7D08A000A1012D
:100808002008F9002108FA000230A2002208FB00A3
:100818000A128A11FA210A128A118316031347034E
:10082800031D172C182C322C5C084106031D1D2CA7
:100838001E2C292C5F08FA005E08F900FB01FB0A50
:100848000A128A11FA210A128A11FF308316031339
:10085800DE070318DF0AFF30DF07342C0130FD0202
:10086800C501C60183160313260883120313FF006C
:100878008316031325088A0024088400230E8300A6
:10088800FE0E7E0E090083160313B101AA1F4D2C1C
:100898004E2C5B2CA709A809A909AA09A70A0319BC
:1008A800A80A0319A90A0319AA0AB101B10AAE1FB5
:1008B8005E2C5F2C6E2CAB09AC09AD09AE09AB0AF6
:1008C8000319AC0A0319AD0A0319AE0A0130AF00C7
:1008D8002F08B1060030B5000030B4000030B30076
:1008E8000030B2002A0829042804270403197D2CA3
:1008F8007E2CCB2CB001B00A8E2C0130AF00031037
:10090800A70DA80DA90DAA0DAF0B832C0130AF00C0
:100918002F08B007AA1F912C922C812C0130AF0010
:100928000310B20DB30DB40DB50DAF0B942C2A08FE
:100938002E02031DA92C29082D02031DA92C280805
:100948002C02031DA92C27082B02031CAC2CAD2C50
:10095800BC2C2708AB022808031C280FAC02290866
:10096800031C290FAD022A08031C2A0FAE023214F9
:1009780001300310AA0CA90CA80CA70CFF3E031DFC
:10098800BD2C0130B002031DCA2CCB2C922C31088F
:100998000319CF2CD02CDB2CB209B309B409B50943
:1009A800B20A0319B30A0319B40A0319B50A3508B8
:1009B800AA003408A9003308A8003208A7000800D4
:1009C800F601F11FE82CE92CF02CF009F109F00AE6
:1009D8000319F10AF601F60AF31FF32CF42CFD2C87
:1009E800F209F309F20A0319F30A0130F400740852
:1009F800F606F701F801700871040319042D052D96
:100A08003C2DF501F50A132D01300310F00DF10D01
:100A1800FF3E031D092D0130F4007408F507F11F8E
:100A2800162D172D082D01300310F70DF80DFF3E78
:100A3800031D182D71087302031D242D70087202FE
:100A4800031C272D282D2F2D7008F2027108031C76
:100A5800F303F302771401300310F10CF00CFF3E9E
:100A6800031D302D0130F502031D3B2D3C2D172DA4
:100A780076080319402D412D462DF709F809F70A84
:100A88000319F80A7808F1007708F0000800F60161
:100A9800F31F4F2D502D572DF209F309F20A0319B0
:100AA800F30AF601F60AF11F5A2D5B2D602DF009A5
:100AB800F109F00A0319F10A700871040319652D88
:100AC800662D952DF501F50A742D01300310F00DF2
:100AD800F10DFF3E031D6A2D0130F4007408F5077F
:100AE800F11F772D782D692D71087302031D7E2D56
:100AF80070087202031C812D822D882D7008F20265
:100B08007108031CF303F30201300310F10CF00C1D
:100B1800FF3E031D892D0130F502031D942D952DEF
:100B2800782D76080319992D9A2D9F2DF209F3092E
:100B3800F20A0319F30A7308F1007208F0000800BA
:100B48008312031309118910D03083160313AB00E5
:100B5800C930AA00AA0BAE2DAB0BAE2D831203131E
:100B6800891438300A128A1179260A128A11343007
:100B780083160313AB00F130AA00AA0BC12DAB0BEF
:100B8800C12D38300A128A1179260A128A110B30BF
:100B980083160313AB006130AA00AA0BD12DAB0B4F
:100BA800D12DD62D38300A128A1179260A128A11C7
:100BB80008300A128A1179260A128A110F300A128D
:100BC8008A1179260A128A1101300A128A117926A5
:100BD8000A128A110C300A128A1179260A128A110D
:100BE80080300A128A1179260A128A1108005334B1
:100BF80065346D34203430343A3420342034203491
:100C08002034203452346F34733473346F340034E6
:100C1800533465346D34203430343A34203420343D
:100C2800203420344734693461346C346C346F3484
:100C38000034533465346D34203430343A3420343D
:100C480020342034203420345634653472346434EB
:100C580065340034543465346D3470346F343A3448
:100C680020342034203420342034203420342034DC
:100C78002034203400348316031307139816831284
:100C8800031398171816831603133608B800370885
:100C9800B9000030B91BFF30BA00BB0006300310A2
:100CA800B80DB90DBA0DBB0DFF3E031D532E3B0801
:100CB800AA003A08A9003908A8003808A700013096
:100CC800AE00E830AD004830AC000030AB000A128E
:100CD8008A1147240A128A11831603132708FF3E34
:100CE80099008B170B178C16080083160313A9009D
:100CF8008312031389148316031329088312031319
:100D080088000911203083160313A8002930A70092
:100D1800A70B8C2EA80B8C2E83120313891020305E
:100D280083160313A8002930A700A70B992EA80B38
:100D3800992E831203138914080083160313AF0036
:100D48002F08AE002E08D300C830AE002E08D400FD
:100D58000430AE002E08D5002B08AE002E08D600B1
:100D68002C08AE002E08D7002D08AE002E08D8009B
:100D7800D3300A128A1124270A128A110800F600B1
:100D8800F401F501D82E74087607F300730884007F
:100D980000080A128A1104270A128A110130F4077E
:100DA8000318F50A0030F50774087607F30073088E
:100DB800840083130008031DE22EE32EC72E0800CB
:100DC800F200831203138914720888000911203075
:100DD800F1002930F000F00BEF2EF10BEF2EF42E7E
:100DE8008312031389102030F1002930F000F00B32
:100DF800FB2EF10BFB2E002F83120313891408001E
:100E0800F200831203138914720888000915203030
:100E1800F1002930F000F00B0F2FF10B0F2F142FDA
:100E28008312031389102030F1002930F000F00BF1
:100E38001B2FF10B1B2F202F83120313891408007B
:100E480083160313A900AA012A082907A80028085D
:100E58008400831300080A128A1154270A128A117F
:100E6800013083160313A8002808AA0706302A02AF
:100E7800031C3F2F402F282F08007E088A007F0878
:100E880082000A128A1141270A128A118000840AF4
:100E980004087D0603190034FF0A0319FE0A452FCA
:100EA80083160313A70083120C1E5B2F5C2F572F8A
:100EB8000C128316031327088312031399000800E2
:100EC800831603138801FF3086008901A0308B0048
:100ED80007308100063083120313810008000034B4
:100EE8000134023403340034A73400340434640079
:100EF8008001840A04060319003404067C2F053493
:02400E00F23F7F
:00000001FF
