:020000040000FA
:060000000A128A110C280F
:10000800FE00030EF1000A08F2000A128A11A02A63
:100018000A128A110F280A128A113C250A128A111B
:10002800E3000A128A113D250A128A11E4000A1215
:100038008A113E250A128A11E5000A128A113F2503
:100048000A128A11E6000A128A1140250A128A1138
:10005800E7000A128A1141250A128A11E80083135F
:10006800A0308400E4300A128A1134250A128A1159
:100078002030840046300A128A1134250A128A1167
:10008800F801F901FA0183010A128A114B280A12B0
:100098008A111A250A128A11803083120313D40098
:1000A8002530D5000A128A1185240A128A110A12EB
:1000B8008A11E3230A128A1101300A128A11BF2415
:1000C8000A128A11053083120313D4008030D50038
:1000D8000430D6008030D7003E300A128A116021E1
:1000E8000A128A11013083120313D4008030D5001C
:1000F800A730CA000030CB000A128A1136240A122F
:100108008A1183120313D6000030D700D0300A12A8
:100118008A1160210A128A11073083120313D4004E
:100128008030D5000930D6008030D7002A300A1236
:100138008A1160210A128A113E3083120313D400F7
:100148000030D500D030D6000030D700A0300A12D9
:100158008A1160210A128A11A03083120313D40075
:100168000030D5002A30D6000030D700A0300A125F
:100178008A1160210A128A11A0300A128A11DF241A
:100188000A128A118312031324080319CC28CD28D4
:10019800D8280130E2006208A707A40127080A123C
:1001A8008A1129250A128A118312031323080319B5
:1001B800DE28DF28E4280130E2006208A607A30150
:1001C80022080319E828E928EE280130E20062082D
:1001D800A507A20129080319F228F328C628013027
:1001E8000A128A11BF240A128A11053083120313D6
:1001F800D4008030D5000430D6008030D7003E309F
:100208000A128A1160210A128A110130831203131B
:10021800D4008030D500A730CA000030CB000A12C5
:100228008A1136240A128A1183120313D600003069
:10023800D700D0300A128A1160210A128A110730B9
:1002480083120313D4008030D5000930D6008030E3
:10025800D7002A300A128A1160210A128A113E3008
:1002680083120313D4000030D500D030D6000030FC
:10027800D700A0300A128A1160210A128A11A03010
:1002880083120313D4000030D5002A30D600003082
:10029800D700A0300A128A1160210A128A11A030F0
:1002A8000A128A11DF240A128A1183120313A90180
:1002B800C6280A128A110C2883120313E100DF01F1
:1002C800E001DD01DE0194295F085407D9005508D3
:1002D800D8000318D80ADF1F7229D8038312031322
:1002E8005808DA005A08FF00590884000A128A11CF
:1002F80000250A128A11DB005D086107DC005C0832
:1003080084005B08831380000130DF070318E00ACC
:100318000030E0070130DD070318DE0A0030DE0791
:100328005F085407D9005508D8000318D80ADF1FFA
:100338009E29D803831203135808DA005A08FF00CD
:10034800590884000A128A1100250A128A11003AF3
:10035800031DAF29B0296829DF01E001DF295F0803
:100368005607D9005708D8000318D80ADF1FBD2937
:10037800D803831203135808DA005A08FF005908F3
:1003880084000A128A1100250A128A11DB005D080E
:100398006107DC005C0884005B088313800001307F
:1003A800DF070318E00A0030E0070130DD07031813
:1003B800DE0A0030DE075F085607D9005708D80064
:1003C8000318D80ADF1FE929D80383120313580832
:1003D800DA005A08FF00590884000A128A11002519
:1003E8000A128A11003A031DFA29FB29B3295D086C
:1003F8006107D8005808840083138001080083121D
:100408000313CF01C91F092A0A2A172AC609C709CF
:10041800C809C909C60A0319C70A0319C80A03196A
:10042800C90ACF01CF0ACD1F1A2A1B2A2A2ACA09AC
:10043800CB09CC09CD09CA0A0319CB0A0319CC0A7E
:100448000319CD0A0130F3007308CF060030D3003A
:100458000030D2000030D1000030D00049084804F4
:10046800470446040319392A3A2A872ACE01CE0AB4
:100478004A2A0130F3000310C60DC70DC80DC90D77
:10048800F30B3F2A0130F3007308CE07C91F4D2A2A
:100498004E2A3D2A0130F3000310D00DD10DD20DA4
:1004A800D30DF30B502A49084D02031D652A48084D
:1004B8004C02031D652A47084B02031D652A46089E
:1004C8004A02031C682A692A782A4608CA02470889
:1004D800031C470FCB024808031C480FCC024908ED
:1004E800031C490FCD02501401300310C90CC80C6D
:1004F800C70CC60CFF3E031D792A0130CE02031D2E
:10050800862A872A4E2A4F0803198B2A8C2A972A6B
:10051800D009D109D209D309D00A0319D10A03197C
:10052800D20A0319D30A5308C9005208C80051084F
:10053800C7005008C6000800831203138619A52AAD
:10054800A62AB52A7A08031DAA2AAB2AB52A24089E
:100558000319AF2AB12A0130B22A0030F00070081E
:10056800A4000310861D0314003003180130FA009C
:10057800061ABF2AC02ACF2A7908031DC42AC52A09
:10058800CF2A23080319C92ACB2A0130CC2A0030E4
:10059800F0007008A3000310061E031400300318AF
:1005A8000130F900861AD92ADA2AE92A7808031DBF
:1005B800DE2ADF2AE92A22080319E32AE52A01307C
:1005C800E62A0030F0007008A2000310861E03140B
:1005D800003003180130F8008C1EF32AF42AFF2A91
:1005E8008C1EF72AF82AF42A8C121A08F0007008D0
:1005F800A800A901A90A0B1D022B032B182BFB30FD
:10060800F00070088B05063081000130A007031840
:10061800A10A0030A107643020062104031D152B10
:10062800162B182BA001A10172088A00710E8300F5
:10063800FE0E7E0E090083120313C701F41F252B3B
:10064800262B2D2BF309F409F30A0319F40AC70121
:10065800C70AF61F302B312B3A2BF509F609F50A94
:100668000319F60A0130F7007708C706C801C9015F
:10067800730874040319412B422B792BC601C60A4F
:10068800502B01300310F30DF40DFF3E031D462BD4
:100698000130F7007708C607F41F532B542B452B5E
:1006A80001300310C80DC90DFF3E031D552B7408FA
:1006B8007602031D612B73087502031C642B652BDE
:1006C8006C2B7308F5027408031CF603F602481431
:1006D80001300310F40CF30CFF3E031D6D2B0130A9
:1006E800C602031D782B792B542B470803197D2B41
:1006F8007E2B832BC809C909C80A0319C90A4908E6
:10070800F4004808F300080083120313C701F61F1A
:100718008E2B8F2B962BF509F609F50A0319F60A85
:10072800C701C70AF41F992B9A2B9F2BF309F409C9
:10073800F30A0319F40A730874040319A42BA52BEC
:10074800D42BC601C60AB32B01300310F30DF40DE8
:10075800FF3E031DA92B0130F7007708C607F41FD9
:10076800B62BB72BA82B74087602031DBD2B730874
:100778007502031CC02BC12BC72B7308F502740824
:10078800031CF603F60201300310F40CF30CFF3ED1
:10079800031DC82B0130C602031DD32BD42BB72B46
:1007A80047080319D82BD92BDE2BF509F609F50ACA
:1007B8000319F60A7608F4007508F3000800831296
:1007C800031309118910D030F700C930F600F60B71
:1007D800EB2BF70BEB2BF02B831203138914383018
:1007E8000A128A11BF240A128A113430F700F13034
:1007F800F600F60BFD2BF70BFD2B022C38300A12F6
:100808008A11BF240A128A110B30F7006230F600F1
:10081800F60B0C2CF70B0C2C000038300A128A113E
:10082800BF240A128A1108300A128A11BF240A1238
:100838008A110F300A128A11BF240A128A11013054
:100848000A128A11BF240A128A110C300A128A115C
:10085800BF240A128A1180300A128A11BF240A1290
:100868008A110800831203136608D2006508D100B4
:100878006408D0006308CF000330CC004C08D300D4
:100888004A084B040319492C4A2C7F2C782C0A302F
:10089800F3000030F4004B08F6004A08F5000A128D
:1008A8008A1188230A128A117308303E83120313AF
:1008B800CC0053084F3E84004C08831380000A3054
:1008C800F3000030F4004B08F6004A08F5000A125D
:1008D8008A111F230A128A11740883120313CB008A
:1008E8007308CA000130D3024A084B04031D7D2C4B
:1008F8007E2C4B2C832C3030CC004C08CF004F3052
:100908000800831603130713981683120313981706
:1009180018165408F4005508F5000030F51BFF3090
:10092800F600F70006300310F40DF50DF60DF70D7F
:10093800FF3E031D972C7708C9007608C800750884
:10094800C7007408C6000130CD00E830CC0048303C
:10095800CB000030CA000A128A1103220A128A1137
:10096800831203134608FF3E8316031399008B175F
:100978000B178C160800F5008312031389147508E9
:10098800880009112030F4002930F300F30BCA2C39
:10099800F40BCA2CCF2C8312031389102030F400D7
:1009A8002930F300F30BD62CF40BD62CDB2C831256
:1009B800031389140800F600F501F12C7508760771
:1009C800F4007408840000080A128A1129250A1202
:1009D8008A110130F4007408F50775087607F400E9
:1009E8007408840083130008031DFB2CFC2CE22CE4
:0209F8000800F5
:100A0000FF1B0A2D83137F1883170008840A03191C
:100A1000FF0A080005308A000408840A82070034AF
:100A2000323430343034003432340034343400342E
:100A300052340034831603138801FF308600890185
:100A4000A0308B0004308100063083120313810034
:100A50000800F300831203130C1E2F2D302D2A2DB6
:100A60000C1273089900080064008001840A0406CF
:100A7000031900340406352D20342034203420346A
:040A8000A734003463
:02400E00F23F7F
:00000001FF
