:020000040000FA
:060000000A128A110C280F
:10000800FE00030EF1000A08F2000A128A11F42910
:100018000A128A110F2883134D30FD000330FE00A9
:100028006630FF00443084000A128A113D230A1208
:100038008A112030840033300A128A1177230A1279
:100048008A11F801F901FA0183010A128A112C2890
:100058000A128A114C230A128A1180308312031360
:10006800C1002530C2000A128A11C6220A128A115A
:100078000A128A1173220A128A1101300A128A118D
:1000880000230A128A11023083120313C3004308A3
:10009800AB00C830C3004308AC000530C3004308B8
:1000A800AD00AE01AF012330C3004308B0002B30D0
:1000B8000A128A1120230A128A11023083120313AA
:1000C800C3004308AB00C830C3004308AC00053088
:1000D800C3004308AD000230C3004308AE00AF01BF
:1000E800AF0A3230C3004308B0002B300A128A111D
:1000F80020230A128A11023083120313C300430813
:10010800AB00C830C3004308AC000530C300430847
:10011800AD000430C3004308AE000230C3004308FA
:10012800AF00B001B00A2B300A128A1120230A123C
:100138008A11023083120313C3004308AB00C8308E
:10014800C3004308AC000530C3004308AD00AE014E
:100158000430C3004308AF000130C3004308B000B7
:100168002B300A128A1120230A128A1102308312B4
:100178000313C3004308AB00C830C3004308AC00F6
:100188000530C3004308AD00AE010530C300430885
:10019800AF000530C3004308B0002B300A128A11A3
:1001A80020230A128A11023083120313C300430862
:1001B800AB00C830C3004308AC000530C300430897
:1001C800AD000230C3004308AE000630C300430848
:1001D800AF000430C3004308B0002B300A128A1164
:1001E80020230A128A11023083120313C300430822
:1001F800AB00C830C3004308AC000530C300430857
:10020800AD000330C3004308AE000730C300430805
:10021800AF000230C3004308B0002B300A128A1125
:1002280020230A128A1183120313250803191D2992
:100238001E2929290130C3004308A807A501280859
:100248000A128A115B230A128A11831203132408E3
:1002580003192F29302935290130C3004308A7077E
:10026800A4012308031939293A293F290130C30079
:100278004308A607A3012203031D4329442945294E
:10028800A2012A08031949294A29172901300A1203
:100298008A1100230A128A1183120313AA0117294B
:1002A8000A128A110C2883120313BC01B61F5D2998
:1002B8005E296B29B309B409B509B609B30A03194C
:1002C800B40A0319B50A0319B60ABC01BC0ABA1F55
:1002D8006E296F297E29B709B809B909BA09B70A79
:1002E8000319B80A0319B90A0319BA0A0130F30045
:1002F8007308BC060030C0000030BF000030BE00EC
:100308000030BD00360835043404330403198D2940
:100318008E29DB29BB01BB0A9E290130F30003109B
:10032800B30DB40DB50DB60DF30B93290130F300E1
:100338007308BB07B61FA129A22991290130F30030
:100348000310BD0DBE0DBF0DC00DF30BA42936085B
:100358003A02031DB92935083902031DB9293408A1
:100368003802031DB92933083702031CBC29BD29EB
:10037800CC293308B7023408031C340FB8023508F7
:10038800031C350FB9023608031C360FBA023D1498
:1003980001300310B60CB50CB40CB30CFF3E031DB2
:1003A800CD290130BB02031DDA29DB29A2293C082B
:1003B8000319DF29E029EB29BD09BE09BF09C009D6
:1003C800BD0A0319BE0A0319BF0A0319C00A400867
:1003D800B6003F08B5003E08B4003D08B300080069
:1003E800831203138619F929FA29092A7A08031DA1
:1003F800FE29FF29092A25080319032A052A01309D
:10040800062A0030F0007008A5000310861D0314AA
:10041800003003180130FA00061A132A142A232A76
:100428007908031D182A192A232A240803191D2AC2
:100438001F2A0130202A0030F0007008A4000310A1
:10044800061E0314003003180130F900861A2D2AFD
:100458002E2A3D2A7808031D322A332A3D2A2308EA
:100468000319372A392A01303A2A0030F000700877
:10047800A3000310861E0314003003180130F8008F
:100488008C1E472A482A532A8C1E4B2A4C2A482A53
:100498008C121A08F0007008A900AA01AA0A0B1DFC
:1004A800562A572A6C2AFB30F00070088B05063054
:1004B80081000130A0070318A10A0030A1076430A9
:1004C80020062104031D692A6A2A6C2AA001A101B9
:1004D80072088A00710E8300FE0E7E0E09008312D8
:1004E800031309118910D030F700C930F600F60B54
:1004F8007B2AF70B7B2A802A83120313891438304E
:100508000A128A1100230A128A113430F700F130D6
:10051800F600F60B8D2AF70B8D2A922A38300A122C
:100528008A1100230A128A110B30F7006230F60094
:10053800F60B9C2AF70B9C2A000038300A128A1105
:1005480000230A128A1108300A128A1100230A129B
:100558008A110F300A128A1100230A128A110130F7
:100568000A128A1100230A128A110C300A128A11FF
:1005780000230A128A1180300A128A1100230A12F3
:100588008A1108008316031307139816831203139E
:10059800981718164108F4004208F5000030F51BBA
:1005A800FF30F600F70006300310F40DF50DF60DD8
:1005B800F70DFF3E031DD82A7708B6007608B50068
:1005C8007508B4007408B3000130BA00E830B90007
:1005D8004830B8000030B7000A128A1157210A12B1
:1005E8008A11831203133308FF3E831603139900FD
:1005F8008B170B178C160800F50083120313891448
:100608007508880009112030F4002930F300F30B35
:100618000B2BF40B0B2B102B831203138910203098
:10062800F4002930F300F30B172BF40B172B1C2BBA
:100638008312031389140800F600F501750876077C
:10064800F40074088400831300080A128A115B23DB
:100658000A128A110130F4007408F5070630750291
:10066800031C372B382B222B08007E088A007F08B2
:1006780082000A128A1139230A128A118000840A18
:1006880004087D0603190034FF0A0319FE0A3D2BEE
:10069800831603138801FF3086008901A0308B0080
:1006A8000430810006308312031381000800F30030
:1006B800831203130C1E612B622B5C2B0C12730824
:1006C80099000800203420342034203414340034B5
:1006D800A7340034043403308A000408840A8207EB
:1006E80000345234003464008001840A040603197B
:0606F80000340406782B1B
:02400E00F23F7F
:00000001FF
