:020000040000FA
:060000000A128A11162805
:10000800FE00030E83160313A3000408A4000A08C5
:10001800A500831203137F0883160313A6000A1290
:100028008A110E2B0A128A1119288317D430FD0061
:100038000530FE00D230FF00903084000A128A1189
:100048001C270A128A118313E330FD000730FE00D3
:100058004A30FF00DB3084000A128A111C270A127A
:100068008A110A128A115A270A128A11FD00C13010
:100078008400DB300A128A1152270A128A11EF0112
:10008800FC0183010A128A1149280A128A113B27A6
:100098000A128A11803083160313B6002530B70080
:1000A8000A128A1116260A128A110A128A117B2547
:1000B8000A128A1101300A128A1150260A128A116C
:1000C800831603135D08BC003C08C2005D08BC0031
:1000D8003C08C3005D08BC003C08C4005B08BC00C9
:1000E8003C08C1004D0803197A287B288028013074
:1000F800BC003C08D007CD014B080319842885288B
:100108008A280130BC003C08CF07CB0149080319F5
:100118008E288F2894280130BC003C08CE07C901DE
:100128004803031D982899280629BF01C0013F08E4
:10013800031D9F28A028FC284008C13E8400831383
:1001480000085B06031DA928AA28FC284008C13E10
:10015800840000085B06031DB228B328C928C7011C
:10016800C70ABD285C08BC004008C13E84003C08A2
:10017800800047030319C128C228B6285D08BC00BF
:100188004008C13E84003C08800003304002031848
:10019800CE28CF28E8284008C23E840000085D0623
:1001A800031DD728D828FA28C701C70AE2285C08FF
:1001B800BC004008C23E84003C0880004703031985
:1001C800E628E728DB28FA285D084106031DED2804
:1001D800EE28FA28C701C70AF5285C08BC003C08C5
:1001E800C10047030319F928FA28F128BF01BF0AFB
:1001F8000130BC003C08C00704304002031C05293C
:1002080006299B284803031D0A290B29C329AB018A
:10021800AB0AAC010A30BC003C08AD0001300A1240
:100228008A1178260A128A11023083160313BC0039
:100238003C08AB00AC01AC0A3C30BD003D08AD0049
:1002480001300A128A1178260A128A11043083169C
:100258000313BC003C08AB000230BD003D08AC00F5
:10026800AD01AD0A01300A128A1178260A128A11E4
:1002780083160313AB010330BC003C08AC004108F3
:10028800BD003D08AD0002300A128A1178260A1214
:100298008A1183160313AB01AB0A0330BC003C0878
:1002A800AC004208BD003D08AD0002300A128A11B8
:1002B80078260A128A11023083160313BC003C0800
:1002C800AB000330BD003D08AC004308BE003E084B
:1002D800AD0002300A128A1178260A128A110330F8
:1002E80083160313BC003C08AB000330BD003D0877
:1002F800AC004408BE003E08AD0002300A128A1164
:1003080078260A128A1183160313AB01AB0A04304C
:10031800BC003C08AC004F08BD003D08AD000230F1
:100328000A128A1178260A128A1183160313CF013A
:10033800AB01AB0A0530BC003C08AC005008BD005E
:100348003D08AD0002300A128A1178260A128A1175
:1003580083160313D001AB01AB0A0630BC003C087E
:10036800AC004E08BD003D08AD0002300A128A11EB
:1003780078260A128A1183160313CE01C80152087F
:100388000319C729C82976285108BC003C08FC0075
:10039800D20176280A128A11162857308400C330F1
:1003A80083120313A0000408A1001130A200200842
:1003B800840083170008A300A00A2108840083137F
:1003C80023088000A10AA20BDB290230EB000030D1
:1003D800EC00ED01EE017A08803AFF0080307F02E0
:1003E800031DF8290A3079020318FB29FC29032A7E
:1003F800013083120313EB000030EC00102A643044
:1004080079067A04031D092A0A2A102A033083125E
:100418000313EB000030EC0079087A040319152A5D
:10042800162A4F2A482A0A30F0000030F1007A08CC
:10043800F3007908F2000A128A1122250A128A1199
:100448007008303E83120313A0006D08683E8400D4
:100458002008831380000A30F0000030F1007A0889
:10046800F3007908F2000A128A11BB240A128A11D1
:100478007108FA007008F900013083120313ED07C0
:100488000318EE0A0030EE0779087A04031D4D2A96
:100498004E2A172A552A303083120313A000200849
:1004A800E80083120313ED01EE016E2A8312031391
:1004B8006D08683E840083130008A0006D080D3C99
:1004C800573E8400200880000130ED070318EE0A2B
:1004D8000030EE076E08803AA0006C08803A2002CF
:1004E800031D782A6B086D02031C7B2A7C2A5A2A72
:1004F80001300A128A11BB260A128A11C0300A1268
:100508008A11BB260A128A117B08031D8C2A8D2AA0
:10051800AB2A24308400B23083120313A0000408ED
:10052800A1001130A2002008840083170008A3004E
:10053800A00A21088400831323088000A10AA20BC3
:10054800972A24300A128A119A260A128A117B03E2
:10055800031DAF2AB02ACE2A35308400A130831279
:100568000313A0000408A1001130A2002008840091
:1005780083170008A300A00A210884008313230816
:100588008000A10AA20BBA2A35300A128A119A26CB
:100598000A128A1102307B06031DD32AD42AF22AB2
:1005A80046308400903083120313A0000408A10091
:1005B8001130A2002008840083170008A300A00AB5
:1005C80021088400831323088000A10AA20BDE2AD5
:1005D80046300A128A119A260A128A1105308312A5
:1005E8000313A2000F30A100F030A000A00BFA2ADC
:1005F800A10BFA2AA20BFA2A000080300A128A11EB
:10060800BB260A128A1157300A128A119A260A1230
:100618008A110800831203138619132B142B252B18
:100628006F08031D182B192B252B831603134D0850
:1006380003191F2B212B0130222B0030A00020088A
:10064800CD0003108312861D0314003003180130F7
:10065800EF00061A302B312B422B831603134C085C
:10066800031D372B382B422B4B0803193C2B3E2BF1
:1006780001303F2B0030A0002008CB00031083126C
:10068800061E031400300318013083160313CC0030
:1006980083120313861A512B522B632B83160313D1
:1006A8004A08031D582B592B632B490803195D2B46
:1006B8005F2B0130602B0030A0002008C900031018
:1006C8008312861E031400300318013083160313A7
:1006D800CA00831203138C1E722B732B802B8C1E63
:1006E800762B772B732B8C121A0883160313A00012
:1006F8002008D100D201D20A0B1D832B842B0D2C8C
:10070800FB3083160313A00020088B0506308312E4
:1007180003138100013083160313C5070318C60AA3
:100728000030C6077D3045064604031D9C2B9D2BD3
:100738000D2C41085B06031DA22BA32BB02B7D08B3
:10074800A000A1012008F9002108FA00FB010A1203
:100758008A11D1210A128A11831603135D084106F2
:10076800031DB72BB82BC82B7D08A000A1012008BA
:10077800F9002108FA000230A2002208FB000A1240
:100788008A11D1210A128A11831603134703031D04
:10079800CE2BCF2BF42B5C084106031DD42BD52B75
:1007A800E02B5F08FA005E08F900FB01FB0A0A1259
:1007B8008A11D1210A128A11FF3083160313DE072A
:1007C8000318DF0AFF30DF075E085F04031DED2B07
:1007D800EE2B0B2CC7010330DE000030DF000B2CA2
:1007E8000130FD027D08031DFA2BFB2B0B2CC801E1
:1007F800C80A7C080319012C022C072C7C08A000CD
:100808002008FD000B2C0530A0002008FD00C501C4
:10081800C60183160313260883120313FF008316E9
:10082800031325088A0024088400230E8300FE0E83
:100838007E0E090083160313B101AA1F242C252C50
:10084800322CA709A809A909AA09A70A0319A80AFD
:100858000319A90A0319AA0AB101B10AAE1F352C56
:10086800362C452CAB09AC09AD09AE09AB0A031906
:10087800AC0A0319AD0A0319AE0A0130AF002F08FC
:10088800B1060030B5000030B4000030B3000030CD
:10089800B2002A082904280427040319542C552CCB
:1008A800A22CB001B00A652C0130AF000310A70DCF
:1008B800A80DA90DAA0DAF0B5A2C0130AF002F08B7
:1008C800B007AA1F682C692C582C0130AF00031000
:1008D800B20DB30DB40DB50DAF0B6B2C2A082E025B
:1008E800031D802C29082D02031D802C28082C02AA
:1008F800031D802C27082B02031C832C842C932C8B
:100908002708AB022808031C280FAC022908031C7F
:10091800290FAD022A08031C2A0FAE023214013037
:100928000310AA0CA90CA80CA70CFF3E031D942CBD
:100938000130B002031DA12CA22C692C3108031927
:10094800A62CA72CB22CB209B309B409B509B20A6E
:100958000319B30A0319B40A0319B50A3508AA001A
:100968003408A9003308A8003208A7000800F601D7
:10097800F11FBF2CC02CC72CF009F109F00A03198C
:10098800F10AF601F60AF31FCA2CCB2CD42CF20973
:10099800F309F20A0319F30A0130F4007408F606A1
:1009A800F701F801700871040319DB2CDC2C132DF6
:1009B800F501F50AEA2C01300310F00DF10DFF3EA8
:1009C800031DE02C0130F4007408F507F11FED2C2D
:1009D800EE2CDF2C01300310F70DF80DFF3E031D40
:1009E800EF2C71087302031DFB2C70087202031CA4
:1009F800FE2CFF2C062D7008F2027108031CF3036D
:100A0800F302771401300310F10CF00CFF3E031DC4
:100A1800072D0130F502031D122D132DEE2C76083B
:100A28000319172D182D1D2DF709F809F70A0319B1
:100A3800F80A7808F1007708F0000800F601F31FBB
:100A4800262D272D2E2DF209F309F20A0319F30A90
:100A5800F601F60AF11F312D322D372DF009F10973
:100A6800F00A0319F10A7008710403193C2D3D2D91
:100A78006C2DF501F50A4B2D01300310F00DF10D29
:100A8800FF3E031D412D0130F4007408F507F11FE6
:100A98004E2D4F2D402D71087302031D552D7008E2
:100AA8007202031C582D592D5F2D7008F20271082F
:100AB800031CF303F30201300310F10CF00CFF3EAA
:100AC800031D602D0130F502031D6B2D6C2D4F2D7C
:100AD80076080319702D712D762DF209F309F20AA3
:100AE8000319F30A7308F1007208F0000800831272
:100AF800031309118910D03083160313AB00C930D2
:100B0800AA00AA0B852DAB0B852D8312031389141C
:100B180038300A128A1150260A128A113430831684
:100B28000313AB00F130AA00AA0B982DAB0B982D3C
:100B380038300A128A1150260A128A110B3083168D
:100B48000313AB006130AA00AA0BA82DAB0BA82D8C
:100B5800AD2D38300A128A1150260A128A1108302F
:100B68000A128A1150260A128A110F300A128A11A3
:100B780050260A128A1101300A128A1150260A12C6
:100B88008A110C300A128A1150260A128A118030F2
:100B98000A128A1150260A128A1108005334653441
:100BA8006D34203430343A34203420342034203426
:100BB800203452346F34733473346F340034533404
:100BC80065346D34203430343A34203420342034C1
:100BD80020344734693461346C346C346F340034F5
:100BE800533465346D34203430343A34203420346E
:100BF80020342034203456346534723464346534F7
:100C08000034543465346D3470346F343A342034DD
:100C1800203420342034203420342034203420342C
:100C28002034003483160313071398168312031312
:100C380098171816831603133608B8003708B90032
:100C48000030B91BFF30BA00BB0006300310B80DE6
:100C5800B90DBA0DBB0DFF3E031D2A2E3B08AA0095
:100C68003A08A9003908A8003808A7000130AE00E2
:100C7800E830AD004830AC000030AB000A128A11F1
:100C88001E240A128A11831603132708FF3E9900AF
:100C98008B170B178C16080083160313A9008312F1
:100CA8000313891483160313290883120313880076
:100CB8000911203083160313A8002930A700A70BB9
:100CC800632EA80B632E831203138910203083161A
:100CD8000313A8002930A700A70B702EA80B702EAD
:100CE800831203138914080083160313AF002F0817
:100CF800AE002E08D300C830AE002E08D400043051
:100D0800AE002E08D5002B08AE002E08D6002C0801
:100D1800AE002E08D7002D08AE002E08D800D3301C
:100D28000A128A11FB260A128A110800F600F40139
:100D3800F501AF2E74087607F300730884000008E5
:100D48000A128A11DB260A128A110130F4070318E5
:100D5800F50A0030F50774087607F3007308840075
:100D680083130008031DB92EBA2E9E2E0800F20028
:100D78008312031389147208880009112030F100C6
:100D88002930F000F00BC62EF10BC62ECB2E8312A5
:100D9800031389102030F1002930F000F00BD22E17
:100DA800F10BD22ED72E8312031389140800F200F8
:100DB8008312031389147208880009152030F10082
:100DC8002930F000F00BE62EF10BE62EEB2E831205
:100DD800031389102030F1002930F000F00BF22EB7
:100DE800F10BF22EF72E83120313891408008316D1
:100DF8000313A900AA012A082907A80028088400C3
:100E0800831300080A128A112B270A128A1101304B
:100E180083160313A8002808AA0706302A02031C11
:100E2800162F172FFF2E08007E088A007F088200E1
:100E38000A128A1118270A128A118000840A0408E3
:100E48007D0603190034FF0A0319FE0A1C2F8316B6
:100E58000313A70083120C1E322F332F2E2F0C12D0
:100E680083160313270883120313990008008316B7
:100E780003138801FF3086008901A0308B000730FA
:100E88008100063083120313810008000034013406
:100E9800023403340034A73400340434640080017D
:0E0EA800840A0406031900340406532F05348F
:02400E00F23F7F
:00000001FF
