:020000040000FA
:060000000A128A110C280F
:10000800FE00030EF1000A08F2000A128A11402AC3
:100018000A128A110F280A128A11D9240A128A117F
:10002800E3000A128A11DA240A128A11E4000A1279
:100038008A11DB240A128A11E5000A128A11DC24CB
:100048000A128A11E6000A128A11DD240A128A119C
:10005800E7000A128A11DE240A128A11E8008313C3
:10006800A0308400E4300A128A11D1240A128A11BD
:100078002030840046300A128A11D1240A128A11CB
:10008800F801F901FA0183010A128A114B280A12B0
:100098008A11B7240A128A11803083120313D400FC
:1000A8002530D5000A128A1125240A128A110A124B
:1000B8008A1183230A128A1101300A128A115F24D5
:1000C8000A128A1183120313240803196C286D2855
:1000D80078280130E2006208A707A40127080A125D
:1000E8008A11C6240A128A118312031323080319DA
:1000F8007E287F2884280130E2006208A607A30131
:1001080022080319882889288E280130E20062080D
:10011800A507A20129080319922893286628013007
:100128000A128A115F240A128A11053083120313F6
:10013800D4008030D5000430D6008030D7003E305F
:100148000A128A1100210A128A110130831203133C
:10015800D4008030D500A730CA000030CB000A1286
:100168008A11D6230A128A1183120313D60000308B
:10017800D700D0300A128A1100210A128A110730DA
:1001880083120313D4008030D5000930D6008030A4
:10019800D7002A300A128A1100210A128A113E3029
:1001A80083120313D4000030D500D030D6000030BD
:1001B800D700A0300A128A1100210A128A11A03031
:1001C80083120313D4000030D5002A30D600003043
:1001D800D700A0300A128A1100210A128A11A03011
:1001E8000A128A117F240A128A1183120313A901A1
:1001F80066280A128A110C2883120313E100DF0112
:10020800E001DD01DE0134295F085407D9005508F3
:10021800D8000318D80ADF1F1229D8038312031342
:100228005808DA005A08FF00590884000A128A118F
:100238009D240A128A11DB005D086107DC005C0856
:1002480084005B08831380000130DF070318E00A8D
:100258000030E0070130DD070318DE0A0030DE0752
:100268005F085407D9005508D8000318D80ADF1FBB
:100278003E29D803831203135808DA005A08FF00EE
:10028800590884000A128A119D240A128A11003A18
:10029800031D4F2950290829DF01E0017F295F0844
:1002A8005607D9005708D8000318D80ADF1F5D2958
:1002B800D803831203135808DA005A08FF005908B4
:1002C80084000A128A119D240A128A11DB005D0833
:1002D8006107DC005C0884005B0883138000013040
:1002E800DF070318E00A0030E0070130DD070318D4
:1002F800DE0A0030DE075F085607D9005708D80025
:100308000318D80ADF1F8929D80383120313580852
:10031800DA005A08FF00590884000A128A119D243D
:100328000A128A11003A031D9A299B2953295D084C
:100338006107D800580884008313800108008312DD
:100348000313CF01C91FA929AA29B729C609C709B3
:10035800C809C909C60A0319C70A0319C80A03192B
:10036800C90ACF01CF0ACD1FBA29BB29CA29CA0990
:10037800CB09CC09CD09CA0A0319CB0A0319CC0A3F
:100388000319CD0A0130F3007308CF060030D300FB
:100398000030D2000030D1000030D00049084804B5
:1003A800470446040319D929DA29272ACE01CE0A97
:1003B800EA290130F3000310C60DC70DC80DC90D99
:1003C800F30BDF290130F3007308CE07C91FED29AD
:1003D800EE29DD290130F3000310D00DD10DD20D27
:1003E800D30DF30BF02949084D02031D052A4808CF
:1003F8004C02031D052A47084B02031D052A46081F
:100408004A02031C082A092A182A4608CA02470869
:10041800031C470FCB024808031C480FCC024908AD
:10042800031C490FCD02501401300310C90CC80C2D
:10043800C70CC60CFF3E031D192A0130CE02031D4E
:10044800262A272AEE294F0803192B2A2C2A372A6D
:10045800D009D109D209D309D00A0319D10A03193D
:10046800D20A0319D30A5308C9005208C800510810
:10047800C7005008C6000800831203138619452ACE
:10048800462A552A7A08031D4A2A4B2A552A24083F
:1004980003194F2A512A0130522A0030F0007008FF
:1004A800A4000310861D0314003003180130FA005D
:1004B800061A5F2A602A6F2A7908031D642A652AAA
:1004C8006F2A23080319692A6B2A01306C2A003025
:1004D800F0007008A3000310061E03140030031870
:1004E8000130F900861A792A7A2A892A7808031DA0
:1004F8007E2A7F2A892A22080319832A852A01301D
:10050800862A0030F0007008A2000310861E03142B
:10051800003003180130F8008C1E932A942A9F2A71
:100528008C1E972A982A942A8C121A08F0007008B0
:10053800A800A901A90A0B1DA22AA32AB82AFB30E0
:10054800F00070088B05063081000130A007031801
:10055800A10A0030A107643020062104031DB52A32
:10056800B62AB82AA001A10172088A00710E830078
:10057800FE0E7E0E090083120313C701F41FC52A5D
:10058800C62ACD2AF309F409F30A0319F40AC701A4
:10059800C70AF61FD02AD12ADA2AF509F609F50A78
:1005A8000319F60A0130F7007708C706C801C90120
:1005B800730874040319E12AE22A192BC601C60A32
:1005C800F02A01300310F30DF40DFF3E031DE62A57
:1005D8000130F7007708C607F41FF32AF42AE52A42
:1005E80001300310C80DC90DFF3E031DF52A74081C
:1005F8007602031D012B73087502031C042B052BBF
:100608000C2B7308F5027408031CF603F602481451
:1006180001300310F40CF30CFF3E031D0D2B0130C9
:10062800C602031D182B192BF42A470803191D2B82
:100638001E2B232BC809C909C80A0319C90A490866
:10064800F4004808F300080083120313C701F61FDB
:100658002E2B2F2B362BF509F609F50A0319F60A66
:10066800C701C70AF41F392B3A2B3F2BF309F409AA
:10067800F30A0319F40A730874040319442B452B6D
:10068800742BC601C60A532B01300310F30DF40D69
:10069800FF3E031D492B0130F7007708C607F41FFA
:1006A800562B572B482B74087602031D5D2B7308B5
:1006B8007502031C602B612B672B7308F502740805
:1006C800031CF603F60201300310F40CF30CFF3E92
:1006D800031D682B0130C602031D732B742B572B87
:1006E80047080319782B792B7E2BF509F609F50AAB
:1006F8000319F60A7608F4007508F3000800831257
:10070800031309118910D030F700C930F600F60B31
:100718008B2BF70B8B2B902B8312031389143830F8
:100728000A128A115F240A128A113430F700F13054
:10073800F600F60B9D2BF70B9D2BA22B38300A12D7
:100748008A115F240A128A110B30F7006230F60012
:10075800F60BAC2BF70BAC2B000038300A128A11C1
:100768005F240A128A1108300A128A115F240A12B9
:100778008A110F300A128A115F240A128A11013075
:100788000A128A115F240A128A110C300A128A117D
:100798005F240A128A1180300A128A115F240A1211
:1007A8008A110800831203136608D2006508D10075
:1007B8006408D0006308CF000330CC004C08D30095
:1007C8004A084B040319E92BEA2B1F2C182C0A3072
:1007D800F3000030F4004B08F6004A08F5000A124E
:1007E8008A1128230A128A117308303E83120313D0
:1007F800CC0053084F3E84004C08831380000A3015
:10080800F3000030F4004B08F6004A08F5000A121D
:100818008A11BF220A128A11740883120313CB00AB
:100828007308CA000130D3024A084B04031D1D2C6B
:100838001E2CEB2B232C3030CC004C08CF004F3033
:1008480008008316031307139816831203139817C7
:1008580018165408F4005508F5000030F51BFF3051
:10086800F600F70006300310F40DF50DF60DF70D40
:10087800FF3E031D372C7708C9007608C8007508A5
:10088800C7007408C6000130CD00E830CC004830FD
:10089800CB000030CA000A128A11A3210A128A1159
:1008A800831203134608FF3E8316031399008B1720
:1008B8000B178C160800F5008312031389147508AA
:1008C800880009112030F4002930F300F30B6A2C5A
:1008D800F40B6A2C6F2C8312031389102030F40058
:1008E8002930F300F30B762CF40B762C7B2C831237
:1008F800031389140800F500F601912C7608750792
:10090800F4007408840000080A128A11C6240A1226
:100918008A110130F4007408F60776087507F400A8
:100928007408840083130008031D9B2C9C2C822CC4
:100938000800FF1BA72C83137F1883170008840A5D
:100948000319FF0A080004308A000408840A820791
:1009580000343234303430340034323400343434F7
:10096800003452340034831603138801FF308600A4
:100978008901A0308B0004308100063083120313F4
:1009880081000800F300831203130C1ECC2CCD2C1D
:10099800C72C0C1273089900080064008001840AAF
:1009A8000406031900340406D22C203420342034E1
:0609B8002034A7340034D6
:02400E00F23F7F
:00000001FF
