:020000040000FA
:060000000A128A11162805
:10000800FE00030E83160313A3000408A4000A08C5
:10001800A500831203137F0883160313A6000A1290
:100028008A11142B0A128A1119288317D430FD005B
:100038000530FE00D830FF00903084000A128A1183
:1000480022270A128A118313E330FD000730FE00CD
:100058005030FF00DB3084000A128A1122270A126E
:100068008A110A128A1160270A128A11FD00C1300A
:100078008400DB300A128A1158270A128A11EF010C
:10008800FC0183010A128A1149280A128A114127A0
:100098000A128A11803083160313B6002530B70080
:1000A8000A128A111C260A128A110A128A1181253B
:1000B8000A128A1101300A128A1156260A128A1166
:1000C800831603135B08BC003C08C1005D08BC0034
:1000D8003C08C2005D08BC003C08C3005D08BC00C9
:1000E8003C08C4004D0803197A287B288028013071
:1000F800BC003C08D007CD014B080319842885288B
:100108008A280130BC003C08CF07CB0149080319F5
:100118008E288F2894280130BC003C08CE07C901DE
:100128004803031D982899280C29BF01C001FD2800
:100138004008C13E8400831300085B06031DA52800
:10014800A628FD284008C13E840000085B06031D60
:10015800AE28AF28C528C701C70AB9285C08BC0063
:100168004008C13E84003C08800047030319BD28AD
:10017800BE28B2285D08BC004008C13E84003C0887
:100188008000033040020318CA28CB28E32840081F
:10019800C23E840000085D06031DD328D428E32846
:1001A800C701C70ADE285C08BC004008C23E8400BC
:1001B8003C08800047030319E228E328D7280330C6
:1001C8004002031CE828E928FB285D084106031DB6
:1001D800EE28EF28FB28C701C70AF6285C08BC00F0
:1001E8003C08C10047030319FA28FB28F228BF017D
:1001F800BF0A3F080319012902299C280130BC00C5
:100208003C08C00704304002031C0B290C29FD28B8
:100218004803031D10291129C929AB01AB0AAC01F8
:100228001930BC003C08AD0001300A128A117E2644
:100238000A128A11023083160313BC003C08AB0073
:10024800AC01AC0A3C30BD003D08AD0001300A12DB
:100258008A117E260A128A11043083160313BC0001
:100268003C08AB000230BD003D08AC00AD01AD0A52
:1002780001300A128A117E260A128A118316031384
:10028800AB010330BC003C08AC004108BD003D0890
:10029800AD0002300A128A117E260A128A118316CC
:1002A8000313AB01AB0A0330BC003C08AC004208A6
:1002B800BD003D08AD0002300A128A117E260A12DE
:1002C8008A11023083160313BC003C08AB000330CC
:1002D800BD003D08AC004308BE003E08AD0002303A
:1002E8000A128A117E260A128A1103308316031312
:1002F800BC003C08AB000330BD003D08AC0044081E
:10030800BE003E08AD0002300A128A117E260A128B
:100318008A1183160313AB01AB0A0430BC003C08F6
:10032800AC000430BD003D08AD0002300A128A114D
:100338007E260A128A1183160313CF01AB01AB0A7A
:100348000530BC003C08AC000730BD003D08AD00DE
:1003580002300A128A117E260A128A1183160313A2
:10036800D001AB01AB0A0630BC003C08AC0003303E
:10037800BD003D08AD0002300A128A117E260A121D
:100388008A1183160313CE01C80152080319CD2917
:10039800CE2976285108BC003C08FC00D2017628FA
:1003A8000A128A11162857308400C33083120313A7
:1003B800A0000408A1001130A200200884008317BF
:1003C8000008A300A00A21088400831323088000E2
:1003D800A10AA20BE1290230EB000030EC00ED018C
:1003E800EE017A08803AFF0080307F02031DFE2963
:1003F8000A3079020318012A022A092A01308312D5
:100408000313EB000030EC00162A643079067A04F6
:10041800031D0F2A102A162A033083120313EB0038
:100428000030EC0079087A0403191B2A1C2A552A83
:100438004E2A0A30F0000030F1007A08F3007908FB
:10044800F2000A128A1128250A128A117008303E11
:1004580083120313A0006D08683E840020088313EC
:1004680080000A30F0000030F1007A08F3007908C3
:10047800F2000A128A11C1240A128A117108FA00BC
:100488007008F900013083120313ED070318EE0A10
:100498000030EE0779087A04031D532A542A1D2ACE
:1004A8005B2A303083120313A0002008E80083126F
:1004B8000313ED01EE01742A831203136D08683EDD
:1004C800840083130008A0006D080D3C573E84008B
:1004D800200880000130ED070318EE0A0030EE070F
:1004E8006E08803AA0006C08803A2002031D7E2A1C
:1004F8006B086D02031C812A822A602A01300A12C5
:100508008A11C1260A128A11C0300A128A11C1261C
:100518000A128A117B08031D922A932AB12A2430D1
:100528008400B23083120313A0000408A100113024
:10053800A2002008840083170008A300A00A21084D
:100548008400831323088000A10AA20B9D2A24306B
:100558000A128A11A0260A128A117B03031DB52AE2
:10056800B62AD42A35308400A13083120313A000A0
:100578000408A1001130A200200884008317000895
:10058800A300A00A21088400831323088000A10A7D
:10059800A20BC02A35300A128A11A0260A128A1123
:1005A80002307B06031DD92ADA2AF82A463084004D
:1005B800903083120313A0000408A1001130A20098
:1005C8002008840083170008A300A00A21088400DB
:1005D800831323088000A10AA20BE42A46300A12DA
:1005E8008A11A0260A128A11053083120313A20069
:1005F8000F30A100F030A000A00B002BA10B002BA6
:10060800A20B002B000080300A128A11C1260A12A0
:100618008A1157300A128A11A0260A128A11080074
:10062800831203138619192B1A2B2B2B6F08031D02
:100638001E2B1F2B2B2B831603134D080319252B59
:10064800272B0130282B0030A0002008CD000310F4
:100658008312861D0314003003180130EF00061AB8
:10066800362B372B482B831603134C08031D3D2BC1
:100678003E2B482B4B080319422B442B0130452BAA
:100688000030A0002008CB0003108312061E0314BC
:1006980000300318013083160313CC0083120313B0
:1006A800861A572B582B692B831603134A08031DE8
:1006B8005E2B5F2B692B49080319632B652B0130CF
:1006C800662B0030A0002008C90003108312861E84
:1006D800031400300318013083160313CA005E08A0
:1006E8005F04031D782B792B7E2BC7010330DE00B6
:1006F8000030DF007D08031D822B832B932BC8015C
:10070800C80A7C080319892B8A2B8F2B7C08A00028
:100718002008FD00932B0530A0002008FD0083125F
:1007280003138C1E982B992BA62B8C1E9C2B9D2B70
:10073800992B8C121A0883160313A0002008D100E5
:10074800D201D20A0B1DA92BAA2B132CFB3083161E
:100758000313A00020088B050630831203138100C1
:10076800013083160313C5070318C60A0030C607ED
:100778007D3045064604031DC22BC32B132C4108AC
:100788005B06031DC82BC92BD62B7D08A000A10131
:100798002008F9002108FA00FB010A128A11D72162
:1007A8000A128A11831603135D084106031DDD2B07
:1007B800DE2BEE2B7D08A000A1012008F9002108FE
:1007C800FA000230A2002208FB000A128A11D7217F
:1007D8000A128A11831603134703031DF42BF52B02
:1007E8000F2C5C084106031DFA2BFB2B062C5F0817
:1007F800FA005E08F900FB01FB0A0A128A11D721E8
:100808000A128A11FF3083160313DE070318DF0A62
:10081800FF30DF07112C0130FD02C501C601831628
:100828000313260883120313FF00831603132508F6
:100838008A0024088400230E8300FE0E7E0E090021
:1008480083160313B101AA1F2A2C2B2C382CA709B5
:10085800A809A909AA09A70A0319A80A0319A90A2C
:100868000319AA0AB101B10AAE1F3B2C3C2C4B2C30
:10087800AB09AC09AD09AE09AB0A0319AC0A0319F7
:10088800AD0A0319AE0A0130AF002F08B1060030D7
:10089800B5000030B4000030B3000030B2002A08C0
:1008A80029042804270403195A2C5B2CA82CB0010E
:1008B800B00A6B2C0130AF000310A70DA80DA90DCD
:1008C800AA0DAF0B602C0130AF002F08B007AA1F8C
:1008D8006E2C6F2C5E2C0130AF000310B20DB30DDF
:1008E800B40DB50DAF0B712C2A082E02031D862CF2
:1008F80029082D02031D862C28082C02031D862C8E
:1009080027082B02031C892C8A2C992C2708AB0258
:100918002808031C280FAC022908031C290FAD0264
:100928002A08031C2A0FAE02321401300310AA0C45
:10093800A90CA80CA70CFF3E031D9A2C0130B0028D
:10094800031DA72CA82C6F2C31080319AC2CAD2C37
:10095800B82CB209B309B409B509B20A0319B30A24
:100968000319B40A0319B50A3508AA003408A900FE
:100978003308A8003208A7000800F601F11FC52CAB
:10098800C62CCD2CF009F109F00A0319F10AF60179
:10099800F60AF31FD02CD12CDA2CF209F309F20A4B
:1009A8000319F30A0130F4007408F606F701F80198
:1009B800700871040319E12CE22C192DF501F50AD0
:1009C800F02C01300310F00DF10DFF3E031DE62C55
:1009D8000130F4007408F507F11FF32CF42CE52C12
:1009E80001300310F70DF80DFF3E031DF52C7108BB
:1009F8007302031D012D70087202031C042D052DBE
:100A08000C2D7008F2027108031CF303F30277142B
:100A180001300310F10CF00CFF3E031D0D2D0130C9
:100A2800F502031D182D192DF42C760803191D2D18
:100A38001E2D232DF709F809F70A0319F80A780873
:100A4800F1007708F0000800F601F31F2C2D2D2D7A
:100A5800342DF209F309F20A0319F30AF601F60A2A
:100A6800F11F372D382D3D2DF009F109F00A031932
:100A7800F10A700871040319422D432D722DF501F6
:100A8800F50A512D01300310F00DF10DFF3E031D45
:100A9800472D0130F4007408F507F11F542D552D2A
:100AA800462D71087302031D5B2D70087202031C2A
:100AB8005E2D5F2D652D7008F2027108031CF3038B
:100AC800F30201300310F10CF00CFF3E031D662DFC
:100AD8000130F502031D712D722D552D760803196D
:100AE800762D772D7C2DF209F309F20A0319F30A02
:100AF8007308F1007208F00008008312031309114B
:100B08008910D03083160313AB00C930AA00AA0B92
:100B18008B2DAB0B8B2D83120313891438300A12DB
:100B28008A1156260A128A11343083160313AB0031
:100B3800F130AA00AA0B9E2DAB0B9E2D38300A125D
:100B48008A1156260A128A110B3083160313AB003A
:100B58006130AA00AA0BAE2DAB0BAE2DB32D3830E9
:100B68000A128A1156260A128A1108300A128A11A4
:100B780056260A128A110F300A128A1156260A12AC
:100B88008A1101300A128A1156260A128A110C306B
:100B98000A128A1156260A128A1180300A128A11FC
:100BA80056260A128A110800533465346D342034ED
:100BB80030343A3420342034203420342034523431
:100BC8006F34733473346F340034533465346D3494
:100BD800203430343A34203420342034203447341C
:100BE800693461346C346C346F3400345334653494
:100BF8006D34203430343A342034203420342034D6
:100C080020345634653472346434653400345434D2
:100C180065346D3470346F343A34203420342034E1
:100C2800203420342034203420342034203400343C
:100C380083160313071398168312031398171816AD
:100C4800831603133608B8003708B9000030B91BFB
:100C5800FF30BA00BB0006300310B80DB90DBA0D4D
:100C6800BB0DFF3E031D302E3B08AA003A08A90021
:100C78003908A8003808A7000130AE00E830AD00F8
:100C88004830AC000030AB000A128A1124240A1242
:100C98008A11831603132708FF3E99008B170B1739
:100CA8008C16080083160313A900831203138914F2
:100CB80083160313290883120313880009112030AF
:100CC80083160313A8002930A700A70B692EA80BC9
:100CD800692E831203138910203083160313A8008A
:100CE8002930A700A70B762EA80B762E83120313A4
:100CF8008914080083160313AF002F08AE002E08CE
:100D0800D300C830AE002E08D4000430AE002E0840
:100D1800D5002B08AE002E08D6002C08AE002E08F1
:100D2800D7002D08AE002E08D800D3300A128A1139
:100D380001270A128A110800F600F401F501B52E00
:100D480074087607F3007308840000080A128A11F1
:100D5800E1260A128A110130F4070318F50A003057
:100D6800F50774087607F3007308840083130008F6
:100D7800031DBF2EC02EA42E0800F20083120313F9
:100D880089147208880009112030F1002930F00018
:100D9800F00BCC2EF10BCC2ED12E8312031389101D
:100DA8002030F1002930F000F00BD82EF10BD82EAE
:100DB800DD2E8312031389140800F2008312031333
:100DC80089147208880009152030F1002930F000D4
:100DD800F00BEC2EF10BEC2EF12E8312031389107D
:100DE8002030F1002930F000F00BF82EF10BF82E2E
:100DF800FD2E831203138914080083160313A90018
:100E0800AA012A082907A8002808840083130008D3
:100E18000A128A1131270A128A1101308316031324
:100E2800A8002808AA0706302A02031C1C2F1D2F19
:100E3800052F08007E088A007F0882000A128A119E
:100E48001E270A128A118000840A04087D060319E5
:100E58000034FF0A0319FE0A222F83160313A70082
:100E680083120C1E382F392F342F0C1283160313BC
:100E780027088312031399000800831603138801B7
:100E8800FF3086008901A0308B00073081000630D2
:100E98008312031381000800003401340234033440
:100EA8000034A7340034043464008001840A040642
:0A0EB800031900340406592F053415
:02400E00F23F7F
:00000001FF
