:020000040000FA
:060000000A128A110C280F
:10000800FE00030EF1000A08F2000A128A11E02825
:100018000A128A110F280A128A11B6220A128A11A4
:10002800C3000A128A11B7220A128A11C4000A12DE
:100038008A11B8220A128A11C5000A128A11B92235
:100048000A128A11C6000A128A11BA220A128A11E1
:10005800C7000A128A11BB220A128A11C800831328
:100068002030840032300A128A11AE220A128A1114
:10007800F801F901FA0183010A128A115F29831232
:100088000313BB01B51F49284A285728B209B309E9
:10009800B409B509B20A0319B30A0319B40A031952
:1000A800B50ABB01BB0AB91F5A285B286A28B609DA
:1000B800B709B809B909B60A0319B70A0319B80A7A
:1000C8000319B90A0130F3007308BB060030BF00FA
:1000D8000030BE000030BD000030BC0035083404DC
:1000E80033043204031979287A28C728BA01BA0ACE
:1000F8008A280130F3000310B20DB30DB40DB50D0D
:10010800F30B7F280130F3007308BA07B51F8D2859
:100118008E287D280130F3000310BC0DBD0DBE0DE7
:10012800BF0DF30B902835083902031DA5283408A4
:100138003802031DA52833083702031DA5283208F5
:100148003602031CA828A928B8283208B6023308A2
:10015800031C330FB7023408031C340FB8023508E8
:10016800031C350FB9023C1401300310B50CB40C54
:10017800B30CB20CFF3E031DB9280130BA02031DAF
:10018800C628C7288E283B080319CB28CC28D7288F
:10019800BC09BD09BE09BF09BC0A0319BD0A031978
:1001A800BE0A0319BF0A3F08B5003E08B4003D085F
:1001B800B3003C08B2000800831203138619E5282F
:1001C800E628F5287A08031DEA28EB28F5282408EC
:1001D8000319EF28F1280130F2280030F0007008E8
:1001E800A4000310861D0314003003180130FA0020
:1001F800061AFF2800290F297908031D0429052953
:100208000F292308031909290B2901300C2900306B
:10021800F0007008A3000310061E03140030031832
:100228000130F900861A19291A2929297808031D85
:100238001E291F29292922080319232925290130C4
:1002480026290030F0007008A2000310861E03144F
:10025800003003180130F8008C1E332934293F2957
:100268008C1E3729382934298C121A08F000700896
:10027800A800A901A90A0B1D422943295829FB30C6
:10028800F00070088B05063081000130A0070318C4
:10029800A10A0030A107643020062104031D552956
:1002A80056295829A001A10172088A00710E8300FD
:1002B800FE0E7E0E09000A128A1194220A128A1171
:1002C800803083120313C0002530C1000A128A113E
:1002D80021220A128A110A128A11CE210A128A11BF
:1002E80001300A128A115B220A128A110230831223
:1002F8000313C2004208AA00C830C2004208AB007B
:100308000530C2004208AC00AD01AE012330C20086
:100318004208AF002A300A128A117B220A128A1177
:1003280083120313240803199A299B29A62901304B
:10033800C2004208A707A40127080A128A11A322AB
:100348000A128A118312031323080319AC29AD2951
:10035800B2290130C2004208A607A30122080319E6
:10036800B629B729BC290130C2004208A507A20155
:1003780029080319C029C129942901300A128A11B0
:100388005B220A128A1183120313A90194290A1203
:100398008A110C288312031309118910D030F70031
:1003A800C930F600F60BD629F70BD629DB298312BC
:1003B8000313891438300A128A115B220A128A112F
:1003C8003430F700F130F600F60BE829F70BE8298E
:1003D800ED2938300A128A115B220A128A110B3071
:1003E800F7006230F600F60BF729F70BF729000043
:1003F80038300A128A115B220A128A1108300A124E
:100408008A115B220A128A110F300A128A115B22A2
:100418000A128A1101300A128A115B220A128A1101
:100428000C300A128A115B220A128A1180300A12D1
:100438008A115B220A128A11080083160313071314
:10044800981683120313981718164008F4004108E9
:10045800F5000030F51BFF30F600F70006300310FA
:10046800F40DF50DF60DF70DFF3E031D332A770841
:10047800B5007608B4007508B3007408B2000130FE
:10048800B900E830B8004830B7000030B6000A12AA
:100498008A1143200A128A11831203133208FF3E7D
:1004A8008316031399008B170B178C160800F50099
:1004B8008312031389147508880009112030F40089
:1004C8002930F300F30B662AF40B662A6B2A831291
:1004D800031389102030F4002930F300F30B722A3B
:1004E800F40B722A772A8312031389140800F50083
:1004F800F60176087507F400740884008313000871
:100508000A128A11A3220A128A110130F40074080F
:10051800F60706307602031C922A932A7D2A0800E1
:10052800831603138801FF3086008901A0308B00F1
:100538000430810006308312031381000800F300A1
:10054800831203130C1EA92AAA2AA42A0C127308C0
:100558009900080064008001840A04060319003425
:100568000406AF2A2034203420342034A734003441
:02400E00F23F7F
:00000001FF
