:020000040000FA
:060000000A128A11162805
:10000800FE00030E83160313A3000408A4000A08C5
:10001800A500831203137F0883160313A6000A1290
:100028008A11112B0A128A1119288317D430FD005E
:100038000530FE00E130FF00903084000A128A117A
:100048002B270A128A118313E330FD000730FE00C4
:100058006130FF00DD3084000A128A112B270A1252
:100068008A110A128A1167270A128A11FD00C13003
:100078008400DD300A128A1159270A128A11EF0109
:10008800FC0183010A128A1149280A128A114A2797
:100098000A128A11803083160313B6002530B70080
:1000A8000A128A1125260A128A110A128A118A2529
:1000B8000A128A1101300A128A115F260A128A115D
:1000C800831603135F08BC003C08C2005F08BC002D
:1000D8003C08C3005F08BC003C08C4005D08BC00C5
:1000E8003C08C1004F0803197A287B288028013072
:1000F800BC003C08D207CF014D0803198428852885
:100108008A280130BC003C08D107CD014B080319EF
:100118008E288F2894280130BC003C08D007CB01DA
:100128004A03031D982899280929BF01C0013F08DF
:10013800031D9F28A028FF284008C13E8400831380
:1001480000085D06031DA928AA28FF284008C13E0B
:10015800840000085D06031DB228B328C928C90118
:10016800C90ABD285E08BC004008C13E84003C089E
:10017800800049030319C128C228B6285F08BC00BB
:100188004008C13E84003C08800003304002031848
:10019800CE28CF28E8284008C23E840000085F0621
:1001A800031DD728D828FD28C901C90AE2285E08F6
:1001B800BC004008C23E84003C0880004903031983
:1001C800E628E728DB28FD285F084106031DED28FF
:1001D800EE28FD28C901C90AF8285E08BC004008B5
:1001E800C23E84003C08800049030319FC28FD280E
:1001F800F128BF01BF0A0130BC003C08C007043029
:100208004002031C082909299B284A03031D0D29BC
:100218000E29C629AB01AB0AAC010A30BC003C0868
:10022800AD0001300A128A1187260A128A1102309B
:1002380083160313BC003C08AB00AC01AC0A3C308D
:10024800BD003D08AD0001300A128A1187260A1246
:100258008A11043083160313BC003C08AB0002303B
:10026800BD003D08AC00AD01AD0A01300A128A118B
:1002780087260A128A1183160313AB010330BC00C8
:100288003C08AC004108BD003D08AD0002300A1230
:100298008A1187260A128A1183160313AB01AB0A47
:1002A8000330BC003C08AC004208BD003D08AD006E
:1002B80002300A128A1187260A128A11023083161E
:1002C8000313BC003C08AB000330BD003D08AC0084
:1002D8004308BE003E08AD0002300A128A11872684
:1002E8000A128A11033083160313BC003C08AB00C2
:1002F8000330BD003D08AC004408BE003E08AD0018
:1003080002300A128A1187260A128A1183160313E9
:10031800AB01AB0A0430BC003C08AC005108BD007E
:100328003D08AD0002300A128A1187260A128A1186
:1003380083160313D101AB01AB0A0530BC003C089E
:10034800AC005208BD003D08AD0002300A128A1107
:1003580087260A128A1183160313D201AB01AB0A4E
:100368000630BC003C08AC005008BD003D08AD009C
:1003780002300A128A1187260A128A118316031379
:10038800D001CA0154080319CA29CB297628530871
:10039800BC003C08FC00D40176280A128A111628F1
:1003A80057308400C33083120313A0000408A1004F
:1003B8001130A2002008840083170008A300A00AB7
:1003C80021088400831323088000A10AA20BDE29D8
:1003D8000230EB000030EC00ED01EE017A08803AC3
:1003E800FF0080307F02031DFB290A3079020318C1
:1003F800FE29FF29062A013083120313EB0000307F
:10040800EC00132A643079067A04031D0C2A0D2A9D
:10041800132A033083120313EB000030EC00790831
:100428007A040319182A192A522A4B2A0A30F0008A
:100438000030F1007A08F3007908F2000A128A11F4
:1004480031250A128A117008303E83120313A00066
:100458006D08683E84002008831380000A30F0008D
:100468000030F1007A08F3007908F2000A128A11C4
:10047800CA240A128A117108FA007008F9000130BA
:1004880083120313ED070318EE0A0030EE0779080C
:100498007A04031D502A512A1A2A582A3030831206
:1004A8000313A0002008E80083120313ED01EE01F6
:1004B800712A831203136D08683E840083130008B1
:1004C800A0006D080D3C573E8400200880000130D4
:1004D800ED070318EE0A0030EE076E08803AA00018
:1004E8006C08803A2002031D7B2A6B086D02031CEE
:1004F8007E2A7F2A5D2A01300A128A11CA260A1228
:100508008A11C0300A128A11CA260A128A117B0877
:10051800031D8F2A902AAE2A24308400B230831219
:100528000313A0000408A1001130A20020088400D1
:1005380083170008A300A00A210884008313230856
:100548008000A10AA20B9A2A24300A128A11A9262D
:100558000A128A117B03031DB22AB32AD12A353025
:100568008400A13083120313A0000408A1001130F5
:10057800A2002008840083170008A300A00A21080D
:100588008400831323088000A10AA20BBD2A3530FA
:100598000A128A11A9260A128A1102307B06031D43
:1005A800D62AD72AF52A46308400903083120313BE
:1005B800A0000408A1001130A200200884008317BD
:1005C8000008A300A00A21088400831323088000E0
:1005D800A10AA20BE12A46300A128A11A9260A1298
:1005E8008A11053083120313A2000F30A100F030E6
:1005F800A000A00BFD2AA10BFD2AA20BFD2A0000DA
:1006080080300A128A11CA260A128A1157300A1231
:100618008A11A9260A128A1108008312031386195F
:10062800162B172B282B6F08031D1B2B1C2B282B75
:10063800831603134F080319222B242B0130252B73
:100648000030A0002008CF0003108312861D031479
:10065800003003180130EF00061A332B342B452BDA
:10066800831603134E08031D3A2B3B2B452B4D08CD
:1006780003193F2B412B0130422B0030A0002008EA
:10068800CD0003108312061E031400300318013036
:1006980083160313CE0083120313861A542B552B8B
:1006A800662B831603134C08031D5B2B5C2B662BF0
:1006B8004B080319602B622B0130632B0030A0001C
:1006C8002008CB0003108312861E03140030031881
:1006D800013083160313CC00831203138C1E752B71
:1006E800762B832B8C1E792B7A2B762B8C121A085F
:1006F80083160313A0002008D300D401D40A0B1DCD
:10070800862B872B1C2CFB3083160313A000200894
:100718008B050630831203138100013083160313FF
:10072800C7070318C80A0030C8077D3047064804C1
:10073800031D9F2BA02B1C2C41085D06031DA52B18
:10074800A62BB32B7D08A000A1012008F9002108E1
:10075800FA00FB010A128A11D4210A128A1183169F
:1007680003135E084106031DBA2BBB2BC92B7D085A
:10077800A000A1012008F9002108FA00FB01FB0AEA
:100788000A128A11D4210A128A11831603135F08E8
:100798004106031DD02BD12BE12B7D08A000A10120
:1007A8002008F9002108FA000230A2002208FB0004
:1007B8000A128A11D4210A128A11831603134903D3
:1007C800031DE72BE82B012C0130C5070318C60AC7
:1007D8000030C6074608803AFF0080307F02031DBC
:1007E800F72B03304502031CFA2BFB2B182C83161E
:1007F8000313C901C501C601182C0130FD027D088B
:10080800031D072C082C182CCA01CA0A7C080319D6
:100818000E2C0F2C142C7C08A0002008FD00182C8E
:100828000530A0002008FD0083160313C701C80186
:1008380083160313260883120313FF00831603137A
:1008480025088A0024088400230E8300FE0E7E0EED
:10085800090083160313B101AA1F332C342C412C31
:10086800A709A809A909AA09A70A0319A80A03191F
:10087800A90A0319AA0AB101B10AAE1F442C452CD2
:10088800542CAB09AC09AD09AE09AB0A0319AC0A83
:100898000319AD0A0319AE0A0130AF002F08B106DB
:1008A8000030B5000030B4000030B3000030B200B2
:1008B8002A082904280427040319632C642CB12C62
:1008C800B001B00A742C0130AF000310A70DA80DB9
:1008D800A90DAA0DAF0B692C0130AF002F08B00786
:1008E800AA1F772C782C672C0130AF000310B20DAB
:1008F800B30DB40DB50DAF0B7A2C2A082E02031DCB
:100908008F2C29082D02031D8F2C28082C02031D6B
:100918008F2C27082B02031C922C932CA22C27081F
:10092800AB022808031C280FAC022908031C290F56
:10093800AD022A08031C2A0FAE023214013003103C
:10094800AA0CA90CA80CA70CFF3E031DA32C013070
:10095800B002031DB02CB12C782C31080319B52C2A
:10096800B62CC12CB209B309B409B509B20A0319E6
:10097800B30A0319B40A0319B50A3508AA003408DA
:10098800A9003308A8003208A7000800F601F11FE3
:10099800CE2CCF2CD62CF009F109F00A0319F10A54
:1009A800F601F60AF31FD92CDA2CE32CF209F30925
:1009B800F20A0319F30A0130F4007408F606F70185
:1009C800F801700871040319EA2CEB2C222DF501AB
:1009D800F50AF92C01300310F00DF10DFF3E031D4F
:1009E800EF2C0130F4007408F507F11FFC2CFD2CE6
:1009F800EE2C01300310F70DF80DFF3E031DFE2C01
:100A080071087302031D0A2D70087202031C0D2D54
:100A18000E2D152D7008F2027108031CF303F30262
:100A2800771401300310F10CF00CFF3E031D162D56
:100A38000130F502031D212D222DFD2C7608031906
:100A4800262D272D2C2DF709F809F70A0319F80A7E
:100A58007808F1007708F0000800F601F31F352D3B
:100A6800362D3D2DF209F309F20A0319F30AF601AE
:100A7800F60AF11F402D412D462DF009F109F00A23
:100A88000319F10A7008710403194B2D4C2D7B2DA5
:100A9800F501F50A5A2D01300310F00DF10DFF3E56
:100AA800031D502D0130F4007408F507F11F5D2D6A
:100AB8005E2D4F2D71087302031D642D700872029C
:100AC800031C672D682D6E2D7008F2027108031C37
:100AD800F303F30201300310F10CF00CFF3E031D89
:100AE8006F2D0130F502031D7A2D7B2D5E2D7608C2
:100AF80003197F2D802D852DF209F309F20A0319B8
:100B0800F30A7308F1007208F00008008312031357
:100B180009118910D03083160313AB00C930AA001D
:100B2800AA0B942DAB0B942D831203138914383020
:100B38000A128A115F260A128A11343083160313A7
:100B4800AB00F130AA00AA0BA72DAB0BA72D3830AC
:100B58000A128A115F260A128A110B3083160313B0
:100B6800AB006130AA00AA0BB72DAB0BB72DBC2D7B
:100B780038300A128A115F260A128A1108300A12BE
:100B88008A115F260A128A110F300A128A115F260B
:100B98000A128A1101300A128A115F260A128A1172
:100BA8000C300A128A115F260A128A1180300A1242
:100BB8008A115F260A128A110800533465346D348D
:100BC800203430343A342034203420342034203453
:100BD80052346F34733473346F340034533465349F
:100BE8006D34203430343A342034203420342034E6
:100BF8004734693461346C346C346F3400345334A2
:100C080065346D34203430343A3420342034203480
:100C180020342034563465347234643465340034F6
:100C2800543465346D3470346F343A34203420349D
:100C3800203420342034203420342034203420340C
:100C48000034831603130713981683120313981797
:100C58001816831603133608B8003708B900003091
:100C6800B91BFF30BA00BB0006300310B80DB90D30
:100C7800BA0DBB0DFF3E031D392E3B08AA003A08EA
:100C8800A9003908A8003808A7000130AE00E830EC
:100C9800AD004830AC000030AB000A128A112D2498
:100CA8000A128A11831603132708FF3E99008B172F
:100CB8000B178C16080083160313A900831203135D
:100CC8008914831603132908831203138800091152
:100CD800203083160313A8002930A700A70B722E13
:100CE800A80B722E83120313891020308316031366
:100CF800A8002930A700A70B7F2EA80B7F2E8312F0
:100D080003138914080083160313AF002F08AE00DD
:100D18002E08D500C830AE002E08D6000430AE002C
:100D28002E08D7002B08AE002E08D8002C08AE00DD
:100D38002E08D9002D08AE002E08DA00D5300A1288
:100D48008A110A270A128A110800F600F401F5012F
:100D5800BE2E74087607F3007308840000080A1290
:100D68008A11EA260A128A110130F4070318F50AD3
:100D78000030F50774087607F300730884008313BE
:100D88000008031DC82EC92EAD2E0800F2008312DC
:100D9800031389147208880009112030F1002930E2
:100DA800F000F00BD52EF10BD52EDA2E831203139B
:100DB80089102030F1002930F000F00BE12EF10B02
:100DC800E12EE62E8312031389140800F200831221
:100DD800031389147208880009152030F10029309E
:100DE800F000F00BF52EF10BF52EFA2E83120313FB
:100DF80089102030F1002930F000F00B012FF10BA1
:100E0800012F062F83120313891408008316031376
:100E1800A900AA012A082907A80028088400831322
:100E280000080A128A113A270A128A110130831619
:100E38000313A8002808AA0706302A02031C252F36
:100E4800262F0E2F08007E088A007F0882000A12CB
:100E58008A1127270A128A118000840A04087D064D
:100E680003190034FF0A0319FE0A2B2F83160313F4
:100E7800A70083120C1E412F422F3D2F0C12831600
:100E8800031327088312031399000800831603131A
:100E98008801FF3086008901A0308B00073081006F
:100EA8000630831203138100080064008001840A5D
:100EB80004060319003404065A2F0034013402349E
:080EC800A734003404340534A2
:02400E00F23F7F
:00000001FF
