:020000040000FA
:060000000A128A11162805
:10000800FE00030E83160313A3000408A4000A08C5
:10001800A500831203137F0883160313A6000A1290
:100028008A110E2B0A128A1119288317D430FD0061
:100038000530FE00DE30FF00903084000A128A117D
:1000480028270A128A118313E430FD000730FE00C6
:100058005E30FF00DE3084000A128A1128270A1257
:100068008A110A128A1164270A128A11FD00C23005
:100078008400DE300A128A1156270A128A11EF010B
:10008800FC0183010A128A1149280A128A1147279A
:100098000A128A11803083160313B6002530B70080
:1000A8000A128A1122260A128A110A128A1187252F
:1000B8000A128A1101300A128A115C260A128A1160
:1000C800831603136008BC003C08C3006008BC002A
:1000D8003C08C4006008BC003C08C5005E08BC00C1
:1000E8003C08C200500803197A287B288028013070
:1000F800BC003C08D307D0014E0803198428852882
:100108008A280130BC003C08D207CE014C080319EC
:100118008E288F2894280130BC003C08D107CC01D8
:100128004B03031D982899280929C001C1014008DB
:10013800031D9F28A028FF284108C23E840083137E
:1001480000085E06031DA928AA28FF284108C23E08
:10015800840000085E06031DB228B328C928CA0116
:10016800CA0ABD285F08BC004108C23E84003C089A
:1001780080004A030319C128C228B6286008BC00B9
:100188004108C23E84003C08800003304102031845
:10019800CE28CF28E8284108C33E8400000860061E
:1001A800031DD728D828FD28CA01CA0AE2285F08F3
:1001B800BC004108C33E84003C0880004A03031980
:1001C800E628E728DB28FD2860084206031DED28FD
:1001D800EE28FD28CA01CA0AF8285F08BC004108B1
:1001E800C33E84003C0880004A030319FC28FD280C
:1001F800F128C001C00A0130BC003C08C107043026
:100208004102031C082909299B284B03031D0D29BA
:100218000E29BF29AB01AB0AAC01AD0101300A12AE
:100228008A1184260A128A11023083160313BC002D
:100238003C08AB00AC01AC0AAD0101300A128A11CE
:1002480084260A128A11043083160313BC003C0862
:10025800AB000230BD003D08AC00AD0101300A1210
:100268008A1184260A128A1183160313AB010330FC
:10027800BC003C08AC004208BD003D08AD0002309F
:100288000A128A1184260A128A1183160313AB01F3
:10029800AB0A0330BC003C08AC004308BD003D0875
:1002A800AD0002300A128A1184260A128A1102301D
:1002B80083160313BC003C08AB000330BD003D08A7
:1002C800AC004408BE003E08AD0002300A128A1194
:1002D80084260A128A11033083160313BC003C08D3
:1002E800AB000330BD003D08AC004508BE003E0829
:1002F800AD0002300A128A1184260A128A11831666
:100308000313AB01AB0A0430BC003C08AC00520834
:10031800BD003D08AD0002300A128A1184260A1277
:100328008A1183160313D201AB01AB0A0530BC0056
:100338003C08AC005308BD003D08AD0002300A126D
:100348008A1184260A128A1183160313D301AB017A
:10035800AB0A0630BC003C08AC005108BD003D08A3
:10036800AD0002300A128A1184260A128A118316F5
:100378000313D101CB0155080319C329C4297628D1
:100388005408BC003C08BF003F08BC003C08FC0007
:10039800D50176280A128A11162857308400C330EE
:1003A80083120313A0000408A1001130A200200842
:1003B800840083170008A300A00A2108840083137F
:1003C80023088000A10AA20BDB290230EB000030D1
:1003D800EC00ED01EE017A08803AFF0080307F02E0
:1003E800031DF8290A3079020318FB29FC29032A7E
:1003F800013083120313EB000030EC00102A643044
:1004080079067A04031D092A0A2A102A033083125E
:100418000313EB000030EC0079087A040319152A5D
:10042800162A4F2A482A0A30F0000030F1007A08CC
:10043800F3007908F2000A128A112E250A128A118D
:100448007008303E83120313A0006D08683E8400D4
:100458002008831380000A30F0000030F1007A0889
:10046800F3007908F2000A128A11C7240A128A11C5
:100478007108FA007008F900013083120313ED07C0
:100488000318EE0A0030EE0779087A04031D4D2A96
:100498004E2A172A552A303083120313A000200849
:1004A800E80083120313ED01EE016E2A8312031391
:1004B8006D08683E840083130008A0006D080D3C99
:1004C800573E8400200880000130ED070318EE0A2B
:1004D8000030EE076E08803AA0006C08803A2002CF
:1004E800031D782A6B086D02031C7B2A7C2A5A2A72
:1004F80001300A128A11C7260A128A11C0300A125C
:100508008A11C7260A128A117B08031D8C2A8D2A94
:10051800AB2A24308400B23083120313A0000408ED
:10052800A1001130A2002008840083170008A3004E
:10053800A00A21088400831323088000A10AA20BC3
:10054800972A24300A128A11A6260A128A117B03D6
:10055800031DAF2AB02ACE2A35308400A130831279
:100568000313A0000408A1001130A2002008840091
:1005780083170008A300A00A210884008313230816
:100588008000A10AA20BBA2A35300A128A11A626BF
:100598000A128A1102307B06031DD32AD42AF22AB2
:1005A80046308400903083120313A0000408A10091
:1005B8001130A2002008840083170008A300A00AB5
:1005C80021088400831323088000A10AA20BDE2AD5
:1005D80046300A128A11A6260A128A110530831299
:1005E8000313A2000F30A100F030A000A00BFA2ADC
:1005F800A10BFA2AA20BFA2A000080300A128A11EB
:10060800C7260A128A1157300A128A11A6260A1218
:100618008A110800831203138619132B142B252B18
:100628006F08031D182B192B252B8316031350084D
:1006380003191F2B212B0130222B0030A00020088A
:10064800D00003108312861D0314003003180130F4
:10065800EF00061A302B312B422B831603134F0859
:10066800031D372B382B422B4E0803193C2B3E2BEE
:1006780001303F2B0030A0002008CE000310831269
:10068800061E031400300318013083160313CF002D
:1006980083120313861A512B522B632B83160313D1
:1006A8004D08031D582B592B632B4C0803195D2B40
:1006B8005F2B0130602B0030A0002008CC00031015
:1006C8008312861E031400300318013083160313A7
:1006D800CD00831203138C1E722B732B802B8C1E60
:1006E800762B772B732B8C121A0883160313A00012
:1006F8002008D400D501D50A0B1D832B842B192C77
:10070800FB3083160313A00020088B0506308312E4
:1007180003138100013083160313C8070318C90A9D
:100728000030C9077D3048064904031D9C2B9D2BCA
:10073800192C42085E06031DA22BA32BB02B7D08A3
:10074800A000A1012008F9002108FA00FB010A1203
:100758008A11D1210A128A11831603135F084206EF
:10076800031DB72BB82BC62B7D08A000A1012008BC
:10077800F9002108FA00FB01FB0A0A128A11D121AB
:100788000A128A118316031360084206031DCD2B33
:10079800CE2BDE2B7D08A000A1012008F90021083E
:1007A800FA000230A2002208FB000A128A11D121A5
:1007B8000A128A11831603134A03031DE42BE52B3F
:1007C800FE2B0130C6070318C70A0030C7074708C1
:1007D800803AFF0080307F02031DF42B033046026D
:1007E800031CF72BF82B152C83160313CA01C6011B
:1007F800C701152C0130FD027D08031D042C052CB2
:10080800152CCB01CB0A7C0803190B2C0C2C112CB2
:100818007C08A0002008FD00152C0530A000200849
:10082800FD0083160313C801C901831603132608A4
:1008380083120313FF008316031325088A00240874
:100848008400230E8300FE0E7E0E09008316031318
:10085800B101AA1F302C312C3E2CA709A809A909DF
:10086800AA09A70A0319A80A0319A90A0319AA0AAF
:10087800B101B10AAE1F412C422C512CAB09AC0975
:10088800AD09AE09AB0A0319AC0A0319AD0A03197D
:10089800AE0A0130AF002F08B1060030B5000030B5
:1008A800B4000030B3000030B2002A08290428043C
:1008B80027040319602C612CAE2CB001B00A712CEE
:1008C8000130AF000310A70DA80DA90DAA0DAF0B9D
:1008D800662C0130AF002F08B007AA1F742C752CA6
:1008E800642C0130AF000310B20DB30DB40DB50D7B
:1008F800AF0B772C2A082E02031D8C2C29082D02F9
:10090800031D8C2C28082C02031D8C2C27082B0275
:10091800031C8F2C902C9F2C2708AB022808031C43
:10092800280FAC022908031C290FAD022A08031C52
:100938002A0FAE02321401300310AA0CA90CA80C1D
:10094800A70CFF3E031DA02C0130B002031DAD2CE7
:10095800AE2C752C31080319B22CB32CBE2CB2095D
:10096800B309B409B509B20A0319B30A0319B40AD9
:100978000319B50A3508AA003408A9003308A800E5
:100988003208A7000800F601F11FCB2CCC2CD32C81
:10099800F009F109F00A0319F10AF601F60AF31F42
:1009A800D62CD72CE02CF209F309F20A0319F30A22
:1009B8000130F4007408F606F701F80170087104B4
:1009C8000319E72CE82C1F2DF501F50AF62C013048
:1009D8000310F00DF10DFF3E031DEC2C0130F40067
:1009E8007408F507F11FF92CFA2CEB2C01300310D1
:1009F800F70DF80DFF3E031DFB2C71087302031D54
:100A0800072D70087202031C0A2D0B2D122D700879
:100A1800F2027108031CF303F30277140130031088
:100A2800F10CF00CFF3E031D132D0130F502031DE0
:100A38001E2D1F2DFA2C76080319232D242D292D60
:100A4800F709F809F70A0319F80A7808F10077088E
:100A5800F0000800F601F31F322D332D3A2DF2096C
:100A6800F309F20A0319F30AF601F60AF11F3D2DFC
:100A78003E2D432DF009F109F00A0319F10A700817
:100A880071040319482D492D782DF501F50A572DC4
:100A980001300310F00DF10DFF3E031D4D2D013007
:100AA800F4007408F507F11F5A2D5B2D4C2D7108C1
:100AB8007302031D612D70087202031C642D652DDD
:100AC8006B2D7008F2027108031CF303F302013066
:100AD8000310F10CF00CFF3E031D6C2D0130F502E4
:100AE800031D772D782D5B2D760803197C2D7D2D20
:100AF800822DF209F309F20A0319F30A7308F100C7
:100B08007208F00008008312031309118910D0300D
:100B180083160313AB00C930AA00AA0B912DAB0BA7
:100B2800912D83120313891438300A128A115C2616
:100B38000A128A11343083160313AB00F130AA006D
:100B4800AA0BA42DAB0BA42D38300A128A115C26EF
:100B58000A128A110B3083160313AB006130AA0006
:100B6800AA0BB42DAB0BB42DB92D38300A128A114B
:100B78005C260A128A1108300A128A115C260A12A7
:100B88008A110F300A128A115C260A128A11013062
:100B98000A128A115C260A128A110C300A128A116A
:100BA8005C260A128A1180300A128A115C260A12FF
:100BB8008A110800533465346D34203430343A34A3
:100BC8002034203420342034203452346F347334A9
:100BD80073346F340034533465346D342034303416
:100BE8003A34203420342034203447346934613492
:100BF8006C346C346F340034533465346D342034C1
:100C080030343A34203420342034203420345634DC
:100C180065347234643465340034543465346D3466
:100C280070346F343A342034203420342034203463
:100C38002034203420342034203400348316031325
:100C4800071398168312031398171816831603139D
:100C58003608B8003708B9000030B91BFF30BA00B1
:100C6800BB0006300310B80DB90DBA0DBB0DFF3E21
:100C7800031D362E3B08AA003A08A9003908A80027
:100C88003808A7000130AE00E830AD004830AC00AD
:100C98000030AB000A128A112A240A128A1183161C
:100CA80003132708FF3E99008B170B178C160800B3
:100CB80083160313A90083120313891483160313DD
:100CC800290883120313880009112030831603139F
:100CD800A8002930A700A70B6F2EA80B6F2E831230
:100CE80003138910203083160313A8002930A700A6
:100CF800A70B7C2EA80B7C2E8312031389140800E3
:100D080083160313AF002F08AE002E08D600C83094
:100D1800AE002E08D7000430AE002E08D8002B08ED
:100D2800AE002E08D9002C08AE002E08DA002D08D7
:100D3800AE002E08DB00D6300A128A1107270A12E5
:100D48008A110800F600F401F501BB2E7408760735
:100D5800F3007308840000080A128A11E7260A12B1
:100D68008A110130F4070318F50A0030F5077408F2
:100D78007607F3007308840083130008031DC52E4B
:100D8800C62EAA2E0800F2008312031389147208D3
:100D9800880009112030F1002930F000F00BD22E24
:100DA800F10BD22ED72E8312031389102030F100B5
:100DB8002930F000F00BDE2EF10BDE2EE32E83122D
:100DC800031389140800F2008312031389147208AC
:100DD800880009152030F1002930F000F00BF22EC0
:100DE800F10BF22EF72E8312031389102030F10035
:100DF8002930F000F00BFE2EF10BFE2E032F83128C
:100E080003138914080083160313A900AA012A08EA
:100E18002907A80028088400831300080A128A11E9
:100E280037270A128A11013083160313A8002808ED
:100E3800AA0706302A02031C222F232F0B2F080093
:100E48007E088A007F0882000A128A1124270A1263
:100E58008A118000840A04087D0603190034FF0AF9
:100E68000319FE0A282F83160313A70083120C1EEA
:100E78003E2F3F2F3A2F0C12831603132708831295
:100E8800031399000800831603138801FF308600B6
:100E98008901A0308B0007308100063083120313CC
:100EA8008100080064008001840A040603190034E4
:100EB8000406572F003401340234A73400340434B4
:020EC8000534EF
:02400E00F23F7F
:00000001FF
