:020000040000FA
:060000000A128A11162805
:10000800FE00030E83160313A3000408A4000A08C5
:10001800A500831203137F0883160313A6000A1290
:100028008A110A2B0A128A1119288317D430FD0065
:100038000530FE00DA30FF00903084000A128A1181
:1000480024270A128A118313E330FD000730FE00CB
:100058005A30FF00DD3084000A128A1124270A1260
:100068008A110A128A1160270A128A11FD00C1300A
:100078008400DD300A128A1152270A128A11EF0110
:10008800FC0183010A128A1149280A128A1143279E
:100098000A128A11803083160313B6002530B70080
:1000A8000A128A111E260A128A110A128A11832537
:1000B8000A128A1101300A128A1158260A128A1164
:1000C800831603135F08BC003C08C2005F08BC002D
:1000D8003C08C3005F08BC003C08C4005D08BC00C5
:1000E8003C08C1004F0803197A287B288028013072
:1000F800BC003C08D207CF014D0803198428852885
:100108008A280130BC003C08D107CD014B080319EF
:100118008E288F2894280130BC003C08D007CB01DA
:100128004A03031D982899280929BF01C0013F08DF
:10013800031D9F28A028FF284008C13E8400831380
:1001480000085D06031DA928AA28FF284008C13E0B
:10015800840000085D06031DB228B328C928C90118
:10016800C90ABD285E08BC004008C13E84003C089E
:10017800800049030319C128C228B6285F08BC00BB
:100188004008C13E84003C08800003304002031848
:10019800CE28CF28E8284008C23E840000085F0621
:1001A800031DD728D828FD28C901C90AE2285E08F6
:1001B800BC004008C23E84003C0880004903031983
:1001C800E628E728DB28FD285F084106031DED28FF
:1001D800EE28FD28C901C90AF8285E08BC004008B5
:1001E800C23E84003C08800049030319FC28FD280E
:1001F800F128BF01BF0A0130BC003C08C007043029
:100208004002031C082909299B284A03031D0D29BC
:100218000E29BF29AB01AB0AAC01AD0101300A12AE
:100228008A1180260A128A11023083160313BC0031
:100238003C08AB00AC01AC0AAD0101300A128A11CE
:1002480080260A128A11043083160313BC003C0866
:10025800AB000230BD003D08AC00AD0101300A1210
:100268008A1180260A128A1183160313AB01033000
:10027800BC003C08AC004108BD003D08AD000230A0
:100288000A128A1180260A128A1183160313AB01F7
:10029800AB0A0330BC003C08AC004208BD003D0876
:1002A800AD0002300A128A1180260A128A11023021
:1002B80083160313BC003C08AB000330BD003D08A7
:1002C800AC004308BE003E08AD0002300A128A1195
:1002D80080260A128A11033083160313BC003C08D7
:1002E800AB000330BD003D08AC004408BE003E082A
:1002F800AD0002300A128A1180260A128A1183166A
:100308000313AB01AB0A0430BC003C08AC00510835
:10031800BD003D08AD0002300A128A1180260A127B
:100328008A1183160313D101AB01AB0A0530BC0057
:100338003C08AC005208BD003D08AD0002300A126E
:100348008A1180260A128A1183160313D201AB017F
:10035800AB0A0630BC003C08AC005008BD003D08A4
:10036800AD0002300A128A1180260A128A118316F9
:100378000313D001CA0154080319C329C4297628D4
:100388005308BC003C08FC00D40176280A128A11E4
:10039800162857308400C33083120313A0000408C2
:1003A800A1001130A2002008840083170008A300D0
:1003B800A00A21088400831323088000A10AA20B45
:1003C800D7290230EB000030EC00ED01EE017A088D
:1003D800803AFF0080307F02031DF4290A30790239
:1003E8000318F729F829FF29013083120313EB00BA
:1003F8000030EC000C2A643079067A04031D052AC3
:10040800062A0C2A033083120313EB000030EC0099
:1004180079087A040319112A122A4B2A442A0A3025
:10042800F0000030F1007A08F3007908F2000A12AF
:100438008A112A250A128A117008303E8312031382
:10044800A0006D08683E84002008831380000A30ED
:10045800F0000030F1007A08F3007908F2000A127F
:100468008A11C3240A128A117108FA007008F90067
:10047800013083120313ED070318EE0A0030EE076C
:1004880079087A04031D492A4A2A132A512A303046
:1004980083120313A0002008E80083120313ED0160
:1004A800EE016A2A831203136D08683E84008313E1
:1004B8000008A0006D080D3C573E8400200880000D
:1004C8000130ED070318EE0A0030EE076E08803A97
:1004D800A0006C08803A2002031D742A6B086D0284
:1004E800031C772A782A562A01300A128A11C32651
:1004F8000A128A11C0300A128A11C3260A128A11F6
:100508007B08031D882A892AA72A24308400B23050
:1005180083120313A0000408A1001130A2002008D0
:10052800840083170008A300A00A2108840083130D
:1005380023088000A10AA20B932A24300A128A11E8
:10054800A2260A128A117B03031DAB2AAC2ACA2AE7
:1005580035308400A13083120313A0000408A100E1
:100568001130A2002008840083170008A300A00A05
:1005780021088400831323088000A10AA20BB62A4D
:1005880035300A128A11A2260A128A1102307B0615
:10059800031DCF2AD02AEE2A4630840090308312D9
:1005A8000313A0000408A1001130A2002008840051
:1005B80083170008A300A00A2108840083132308D6
:1005C8008000A10AA20BDA2A46300A128A11A22652
:1005D8000A128A11053083120313A2000F30A100FA
:1005E800F030A000A00BF62AA10BF62AA20BF62ADF
:1005F800000080300A128A11C3260A128A11573065
:100608000A128A11A2260A128A11080083120313F9
:1006180086190F2B102B212B6F08031D142B152B5C
:10062800212B831603134F0803191B2B1D2B013095
:100638001E2B0030A0002008CF0003108312861D57
:100648000314003003180130EF00061A2C2B2D2B51
:100658003E2B831603134E08031D332B342B3E2BDE
:100668004D080319382B3A2B01303B2B0030A000E2
:100678002008CD0003108312061E0314003003184F
:10068800013083160313CE0083120313861A4D2BF1
:100698004E2B5F2B831603134C08031D542B552B2D
:1006A8005F2B4B080319592B5B2B01305C2B003057
:1006B800A0002008CB0003108312861E031400300C
:1006C8000318013083160313CC00831203138C1E06
:1006D8006E2B6F2B7C2B8C1E722B732B6F2B8C121B
:1006E8001A0883160313A0002008D300D401D40AE3
:1006F8000B1D7F2B802B152CFB3083160313A000BA
:1007080020088B05063083120313810001308316FD
:100718000313C7070318C80A0030C8077D30470607
:100728004804031D982B992B152C41085D06031DC1
:100738009E2B9F2BAC2B7D08A000A1012008F9005F
:100748002108FA00FB010A128A11CD210A128A1126
:10075800831603135E084106031DB32BB42BC22B6B
:100768007D08A000A1012008F9002108FA00FB017A
:10077800FB0A0A128A11CD210A128A118316031361
:100788005F084106031DC92BCA2BDA2B7D08A00080
:10079800A1012008F9002108FA000230A20022086D
:1007A800FB000A128A11CD210A128A11831603133B
:1007B8004903031DE02BE12BFA2B0130C507031871
:1007C800C60A0030C6074608803AFF0080307F021C
:1007D800031DF02B03304502031CF32BF42B112CC3
:1007E80083160313C901C501C601112C0130FD028E
:1007F8007D08031D002C012C112CCA01CA0A7C0893
:100808000319072C082C0D2C7C08A0002008FD00DB
:10081800112C0530A0002008FD0083160313C70122
:10082800C80183160313260883120313FF008316D7
:10083800031325088A0024088400230E8300FE0E73
:100848007E0E090083160313B101AA1F2C2C2D2C30
:100858003A2CA709A809A909AA09A70A0319A80AE5
:100868000319A90A0319AA0AB101B10AAE1F3D2C3E
:100878003E2C4D2CAB09AC09AD09AE09AB0A0319E6
:10088800AC0A0319AD0A0319AE0A0130AF002F08EC
:10089800B1060030B5000030B4000030B3000030BD
:1008A800B2002A0829042804270403195C2C5D2CAB
:1008B800AA2CB001B00A6D2C0130AF000310A70DAF
:1008C800A80DA90DAA0DAF0B622C0130AF002F089F
:1008D800B007AA1F702C712C602C0130AF000310D8
:1008E800B20DB30DB40DB50DAF0B732C2A082E0243
:1008F800031D882C29082D02031D882C28082C028A
:10090800031D882C27082B02031C8B2C8C2C9B2C5A
:100918002708AB022808031C280FAC022908031C6F
:10092800290FAD022A08031C2A0FAE023214013027
:100938000310AA0CA90CA80CA70CFF3E031D9C2CA5
:100948000130B002031DA92CAA2C712C31080319FF
:10095800AE2CAF2CBA2CB209B309B409B509B20A46
:100968000319B30A0319B40A0319B50A3508AA000A
:100978003408A9003308A8003208A7000800F601C7
:10098800F11FC72CC82CCF2CF009F109F00A031964
:10099800F10AF601F60AF31FD22CD32CDC2CF2094B
:1009A800F309F20A0319F30A0130F4007408F60691
:1009B800F701F801700871040319E32CE42C1B2DCE
:1009C800F501F50AF22C01300310F00DF10DFF3E90
:1009D800031DE82C0130F4007408F507F11FF52C0D
:1009E800F62CE72C01300310F70DF80DFF3E031D20
:1009F800F72C71087302031D032D70087202031C83
:100A0800062D072D0E2D7008F2027108031CF30342
:100A1800F302771401300310F10CF00CFF3E031DB4
:100A28000F2D0130F502031D1A2D1B2DF62C76080B
:100A380003191F2D202D252DF709F809F70A031989
:100A4800F80A7808F1007708F0000800F601F31FAB
:100A58002E2D2F2D362DF209F309F20A0319F30A68
:100A6800F601F60AF11F392D3A2D3F2DF009F1094B
:100A7800F00A0319F10A700871040319442D452D71
:100A8800742DF501F50A532D01300310F00DF10D09
:100A9800FF3E031D492D0130F4007408F507F11FCE
:100AA800562D572D482D71087302031D5D2D7008B2
:100AB8007202031C602D612D672D7008F202710807
:100AC800031CF303F30201300310F10CF00CFF3E9A
:100AD800031D682D0130F502031D732D742D572D4C
:100AE80076080319782D792D7E2DF209F309F20A7B
:100AF8000319F30A7308F1007208F0000800831262
:100B0800031309118910D03083160313AB00C930C1
:100B1800AA00AA0B8D2DAB0B8D2D831203138914FC
:100B280038300A128A1158260A128A11343083166C
:100B38000313AB00F130AA00AA0BA02DAB0BA02D1C
:100B480038300A128A1158260A128A110B30831675
:100B58000313AB006130AA00AA0BB02DAB0BB02D6C
:100B6800B52D38300A128A1158260A128A1108300F
:100B78000A128A1158260A128A110F300A128A118B
:100B880058260A128A1101300A128A1158260A12A6
:100B98008A110C300A128A1158260A128A118030DA
:100BA8000A128A1158260A128A1108005334653429
:100BB8006D34203430343A34203420342034203416
:100BC800203452346F34733473346F3400345334F4
:100BD80065346D34203430343A34203420342034B1
:100BE80020344734693461346C346C346F340034E5
:100BF800533465346D34203430343A34203420345E
:100C080020342034203456346534723464346534E6
:100C18000034543465346D3470346F343A342034CD
:100C2800203420342034203420342034203420341C
:100C38002034003483160313071398168312031302
:100C480098171816831603133608B8003708B90022
:100C58000030B91BFF30BA00BB0006300310B80DD6
:100C6800B90DBA0DBB0DFF3E031D322E3B08AA007D
:100C78003A08A9003908A8003808A7000130AE00D2
:100C8800E830AD004830AC000030AB000A128A11E1
:100C980026240A128A11831603132708FF3E990097
:100CA8008B170B178C16080083160313A9008312E1
:100CB8000313891483160313290883120313880066
:100CC8000911203083160313A8002930A700A70BA9
:100CD8006B2EA80B6B2E83120313891020308316FA
:100CE8000313A8002930A700A70B782EA80B782E8D
:100CF800831203138914080083160313AF002F0807
:100D0800AE002E08D500C830AE002E08D60004303C
:100D1800AE002E08D7002B08AE002E08D8002C08ED
:100D2800AE002E08D9002D08AE002E08DA00D53006
:100D38000A128A1103270A128A110800F600F40120
:100D4800F501B72E74087607F300730884000008CD
:100D58000A128A11E3260A128A110130F4070318CD
:100D6800F50A0030F50774087607F3007308840065
:100D780083130008031DC12EC22EA62E0800F20000
:100D88008312031389147208880009112030F100B6
:100D98002930F000F00BCE2EF10BCE2ED32E83127D
:100DA800031389102030F1002930F000F00BDA2EFF
:100DB800F10BDA2EDF2E8312031389140800F200D8
:100DC8008312031389147208880009152030F10072
:100DD8002930F000F00BEE2EF10BEE2EF32E8312DD
:100DE800031389102030F1002930F000F00BFA2E9F
:100DF800F10BFA2EFF2E83120313891408008316B1
:100E08000313A900AA012A082907A80028088400B2
:100E1800831300080A128A1133270A128A11013033
:100E280083160313A8002808AA0706302A02031C01
:100E38001E2F1F2F072F08007E088A007F088200B8
:100E48000A128A1120270A128A118000840A0408CB
:100E58007D0603190034FF0A0319FE0A242F83169E
:100E68000313A70083120C1E3A2F3B2F362F0C12A8
:100E780083160313270883120313990008008316A7
:100E880003138801FF3086008901A0308B000730EA
:100E9800810006308312031381000800640080017A
:100EA800840A0406031900340406532F003401345D
:0A0EB8000234A7340034043405347A
:02400E00F23F7F
:00000001FF
