:020000040000FA
:060000000A128A11162805
:10000800FE00030E83160313A3000408A4000A08C5
:10001800A500831203137F0883160313A6000A1290
:100028008A1186290A128A1119288317D430FD00EB
:100038000530FE004330FF00903084000A128A1118
:100048004E260A128A118313E430FD000630FE00A2
:100058007430FF00DE3084000A128A114E260A121C
:100068008A110A128A117A260A128A11FD00C230F0
:100078008400DE300A128A116C260A128A11EF01F6
:10008800FC0183010A128A11A22A57308400C33066
:1000980083120313A0000408A1001130A200200855
:1000A800840083170008A300A00A21088400831392
:1000B80023088000A10AA20B53280230EB0000306D
:1000C800EC00ED01EE017A08803AFF0080307F02F3
:1000D800031D70280A3079020318732874287B28B6
:1000E800013083120313EB000030EC0088286430E1
:1000F80079067A04031D8128822888280330831210
:100108000313EB000030EC0079087A0403198D28FA
:100118008E28C728C0280A30F0000030F1007A087D
:10012800F3007908F2000A128A1193240A128A113C
:100138007008303E83120313A0006D08683E8400E7
:100148002008831380000A30F0000030F1007A089C
:10015800F3007908F2000A128A112C240A128A1173
:100168007108FA007008F900013083120313ED07D3
:100178000318EE0A0030EE0779087A04031DC52833
:10018800C6288F28CD28303083120313A0002008FA
:10019800E80083120313ED01EE01E628831203132E
:1001A8006D08683E840083130008A0006D080D3CAC
:1001B800573E8400200880000130ED070318EE0A3E
:1001C8000030EE076E08803AA0006C08803A2002E2
:1001D800031DF0286B086D02031CF328F428D228AD
:1001E80001300A128A110A260A128A11C0300A122C
:1001F8008A110A260A128A117B08031D0429052977
:10020800232924308400B23083120313A000040889
:10021800A1001130A2002008840083170008A30061
:10022800A00A21088400831323088000A10AA20BD6
:100238000F2924300A128A11E9250A128A117B0330
:10024800031D27292829462935308400A130831227
:100258000313A0000408A1001130A20020088400A4
:1002680083170008A300A00A210884008313230829
:100278008000A10AA20B322935300A128A11E92519
:100288000A128A1102307B06031D4B294C296A2960
:1002980046308400903083120313A0000408A100A4
:1002A8001130A2002008840083170008A300A00AC8
:1002B80021088400831323088000A10AA20B562971
:1002C80046300A128A11E9250A128A11053083126A
:1002D8000313A2000F30A100F030A000A00B722978
:1002E800A10B7229A20B7229000080300A128A1110
:1002F8000A260A128A1157300A128A11E9250A12A7
:100308008A1108008312031386198B298C299D29C9
:100318006F08031D902991299D29831603135008FE
:1003280003199729992901309A290030A00020083B
:10033800D00003108312861D031400300318013007
:10034800EF00061AA829A929BA29831603134F080A
:10035800031DAF29B029BA294E080319B429B629B3
:100368000130B7290030A0002008CE000310831206
:10037800061E031400300318013083160313CF0040
:1003880083120313861AC929CA29DB298316031382
:100398004D08031DD029D129DB294C080319D5297B
:1003A800D7290130D8290030A0002008CC0003103C
:1003B8008312861E031400300318013083160313BA
:1003C800CD00831203138C1EEA29EB29F8298C1E11
:1003D800EE29EF29EB298C121A0883160313A000C3
:1003E8002008D400D501D50A0B1DFB29FC29912A28
:1003F800FB3083160313A00020088B0506308312F8
:1004080003138100013083160313C8070318C90AB0
:100418000030C9077D3048064904031D142A152AEF
:10042800912A42085E06031D1A2A1B2A282A7D08DB
:10043800A000A1012008F9002108FA00FB010A1216
:100448008A1149200A128A11831603135F0842068B
:10045800031D2F2A302A3E2A7D08A000A10120086A
:10046800F9002108FA00FB01FB0A0A128A11492047
:100478000A128A118316031360084206031D452ACF
:10048800462A562A7D08A000A1012008F900210863
:10049800FA000230A2002208FB000A128A11492041
:1004A8000A128A11831603134A03031D5C2A5D2A64
:1004B800762A0130C6070318C70A0030C70747085D
:1004C800803AFF0080307F02031D6C2A0330460209
:1004D800031C6F2A702A8D2A83160313CA01C601CA
:1004E800C7018D2A0130FD027D08031D7C2A7D2A63
:1004F8008D2ACB01CB0A7C080319832A842A892AEE
:100508007C08A0002008FD008D2A0530A0002008E6
:10051800FD0083160313C801C901831603132608B7
:1005280083120313FF008316031325088A00240887
:100538008400230E8300FE0E7E0E09000A128A1123
:100548005D260A128A11803083160313B6002530FF
:10055800B7000A128A1187250A128A110A128A110B
:10056800EC240A128A1101300A128A11C1250A12D2
:100578008A11831603136008BC003C08C200600897
:10058800BC003C08C3006008BC003C08C40060080C
:10059800BC003C08C500153083160313BE004B3061
:1005A800BD00BD30BC00BC0BD72ABD0BD72ABE0B83
:1005B800D72ADE2A831603135E08BC003C08C20053
:1005C80050080319E82AE92AEE2A0130BC003C0841
:1005D800D307D0014E080319F22AF32AF82A01306A
:1005E800BC003C08D207CE014C080319FC2AFD2A9E
:1005F800022B0130BC003C08D107CC014B03031D82
:10060800062B072B772BC001C1014008031D0D2BBA
:100618000E2B6D2B4108C23E8400831300085E0632
:10062800031D172B182B6D2B4108C23E84000008B0
:100638005E06031D202B212B372BCA01CA0A2B2B40
:100648005F08BC004108C23E84003C0880004A03A1
:1006580003192F2B302B242B6008BC004108C23E05
:1006680084003C0880000330410203183C2B3D2BDA
:10067800562B4108C33E840000086006031D452B25
:10068800462B6B2BCA01CA0A502B5F08BC004108D5
:10069800C33E84003C0880004A030319542B552BA1
:1006A800492B6B2B60084206031D5B2B5C2B6B2BC5
:1006B800CA01CA0A662B5F08BC004108C33E840011
:1006C8003C0880004A0303196A2B6B2B5F2BC0017F
:1006D800C00A0130BC003C08C10704304102031CB9
:1006E800762B772B092B4B03031D7B2B7C2B7D2B28
:1006F800CB0155080319812B822BE42A5408BC002E
:100708003C08BF003F08BC003C08FC00D501E42AB7
:100718000A128A11162883160313B101AA1F952BF2
:10072800962BA32BA709A809A909AA09A70A03199F
:10073800A80A0319A90A0319AA0AB101B10AAE1F26
:10074800A62BA72BB62BAB09AC09AD09AE09AB0A92
:100758000319AC0A0319AD0A0319AE0A0130AF0038
:100768002F08B1060030B5000030B4000030B300E7
:100778000030B2002A082904280427040319C52BCD
:10078800C62B132CB001B00AD62B0130AF000310D2
:10079800A70DA80DA90DAA0DAF0BCB2B0130AF00EB
:1007A8002F08B007AA1FD92BDA2BC92B0130AF00AD
:1007B8000310B20DB30DB40DB50DAF0BDC2B2A0829
:1007C8002E02031DF12B29082D02031DF12B2808E9
:1007D8002C02031DF12B27082B02031CF42BF52BED
:1007E800042C2708AB022808031C280FAC02290890
:1007F800031C290FAD022A08031C2A0FAE0232146B
:1008080001300310AA0CA90CA80CA70CFF3E031D6D
:10081800052C0130B002031D122C132CDA2B3108E1
:100828000319172C182C232CB209B309B409B509DC
:10083800B20A0319B30A0319B40A0319B50A350829
:10084800AA003408A9003308A8003208A700080045
:10085800F601F11F302C312C382CF009F109F00A7F
:100868000319F10AF601F60AF31F3B2C3C2C452C20
:10087800F209F309F20A0319F30A0130F4007408C3
:10088800F606F701F8017008710403194C2C4D2C79
:10089800842CF501F50A5B2C01300310F00DF10DE5
:1008A800FF3E031D512C0130F4007408F507F11FB9
:1008B8005E2C5F2C502C01300310F70DF80DFF3E15
:1008C800031D602C71087302031D6C2C70087202E2
:1008D800031C6F2C702C772C7008F2027108031C13
:1008E800F303F302771401300310F10CF00CFF3E10
:1008F800031D782C0130F502031D832C842C5F2CFA
:1009080076080319882C892C8E2CF709F809F70A20
:100918000319F80A7808F1007708F0000800F601D2
:10092800F31F972C982C9F2CF209F309F20A03194C
:10093800F30AF601F60AF11FA22CA32CA82CF00941
:10094800F109F00A0319F10A700871040319AD2CB2
:10095800AE2CDD2CF501F50ABC2C01300310F00D8E
:10096800F10DFF3E031DB22C0130F4007408F507A9
:10097800F11FBF2CC02CB12C71087302031DC62CAB
:1009880070087202031CC92CCA2CD02C7008F20201
:100998007108031CF303F30201300310F10CF00C8F
:1009A800FF3E031DD12C0130F502031DDC2CDD2C8C
:1009B800C02C76080319E12CE22CE72CF209F30984
:1009C800F20A0319F30A7308F1007208F00008002C
:1009D8008312031309118910D03083160313AB0057
:1009E800C930AA00AA0BF62CAB0BF62C8312031302
:1009F800891438300A128A11C1250A128A11343032
:100A080083160313AB00F130AA00AA0B092DAB0B18
:100A1800092D38300A128A11C1250A128A110B30A1
:100A280083160313AB006130AA00AA0B192DAB0B78
:100A3800192D1E2D38300A128A11C1250A128A1161
:100A480008300A128A11C1250A128A110F300A12B7
:100A58008A11C1250A128A1101300A128A11C12588
:100A68000A128A110C300A128A11C1250A128A1137
:100A780080300A128A11C1250A128A1108005334DB
:100A880065346D34203430343A3420342034203402
:100A98002034203452346F34733473346F34003458
:100AA800533465346D34203430343A3420342034AF
:100AB800203420344734693461346C346C346F34F6
:100AC8000034533465346D34203430343A342034AF
:100AD800203420342034203456346534723464345D
:100AE80065340034543465346D3470346F343A34BA
:100AF800203420342034203420342034203420344E
:100B080020342034003483160313071398168312F5
:100B1800031398171816831603133608B8003708F6
:100B2800B9000030B91BFF30BA00BB000630031013
:100B3800B80DB90DBA0DBB0DFF3E031D9B2D3B082B
:100B4800AA003A08A9003908A8003808A700013007
:100B5800AE00E830AD004830AC000030AB000A12FF
:100B68008A118F230A128A11831603132708FF3E5E
:100B780099008B170B178C16080083160313A9000E
:100B8800831203138914831603132908831203138A
:100B980088000911203083160313A8002930A70004
:100BA800A70BD42DA80BD42D831203138910203042
:100BB80083160313A8002930A700A70BE12DA80B63
:100BC800E12D8312031389140800F600F401F501DE
:100BD800FE2D74087607F3007308840000080A12D3
:100BE8008A112A260A128A110130F4070318F50A15
:100BF8000030F50774087607F30073088400831340
:100C08000008031D082E092EED2D0800F20083129E
:100C1800031389147208880009112030F100293063
:100C2800F000F00B152EF10B152E1A2E831203135C
:100C380089102030F1002930F000F00B212EF10B43
:100C4800212E262E8312031389140800F200831222
:100C5800031389147208880009152030F10029301F
:100C6800F000F00B352EF10B352E3A2E83120313BC
:100C780089102030F1002930F000F00B412EF10BE3
:100C8800412E462E83120313891408007E088A0019
:100C98007F0882000A128A114A260A128A118000E5
:100CA800840A04087D0603190034FF0A0319FE0AA2
:100CB8004E2E831603138801FF3086008901A03069
:100CC8008B0007308100063083120313810008006F
:100CD80064008001840A04060319003404066D2E9A
:0E0CE800003401340234A734003404340534DF
:02400E00F23F7F
:00000001FF
